{"contracts/AnchorContract.sol":{"AnchorContract":{"abi":[{"inputs":[{"internalType":"string","name":"_thisChainName","type":"string"},{"internalType":"string","name":"_anchoredChainName","type":"string"}],"stateMutability":"nonpayable","type":"constructor"},{"anonymous":false,"inputs":[{"indexed":true,"internalType":"uint256","name":"blockNumber","type":"uint256"},{"indexed":true,"internalType":"bytes32","name":"blockHash","type":"bytes32"},{"indexed":false,"internalType":"bytes32","name":"stateRoot","type":"bytes32"},{"indexed":false,"internalType":"string","name":"chainName","type":"string"},{"indexed":false,"internalType":"uint256","name":"timestamp","type":"uint256"}],"name":"BlockAnchored","type":"event"},{"anonymous":false,"inputs":[{"indexed":true,"internalType":"address","name":"previousOwner","type":"address"},{"indexed":true,"internalType":"address","name":"newOwner","type":"address"}],"name":"OwnershipTransferred","type":"event"},{"inputs":[{"internalType":"uint256","name":"_blockNumber","type":"uint256"},{"internalType":"bytes32","name":"_blockHash","type":"bytes32"},{"internalType":"bytes32","name":"_stateRoot","type":"bytes32"}],"name":"anchorBlock","outputs":[],"stateMutability":"nonpayable","type":"function"},{"inputs":[{"internalType":"uint256","name":"","type":"uint256"}],"name":"anchoredBlocks","outputs":[{"internalType":"uint256","name":"blockNumber","type":"uint256"},{"internalType":"bytes32","name":"blockHash","type":"bytes32"},{"internalType":"bytes32","name":"stateRoot","type":"bytes32"},{"internalType":"uint256","name":"timestamp","type":"uint256"},{"internalType":"string","name":"chainName","type":"string"}],"stateMutability":"view","type":"function"},{"inputs":[],"name":"anchoredChainName","outputs":[{"internalType":"string","name":"","type":"string"}],"stateMutability":"view","type":"function"},{"inputs":[{"internalType":"uint256","name":"","type":"uint256"}],"name":"blockByNumber","outputs":[{"internalType":"uint256","name":"blockNumber","type":"uint256"},{"internalType":"bytes32","name":"blockHash","type":"bytes32"},{"internalType":"bytes32","name":"stateRoot","type":"bytes32"},{"internalType":"uint256","name":"timestamp","type":"uint256"},{"internalType":"string","name":"chainName","type":"string"}],"stateMutability":"view","type":"function"},{"inputs":[{"internalType":"uint256","name":"_blockNumber","type":"uint256"}],"name":"getAnchoredBlock","outputs":[{"components":[{"internalType":"uint256","name":"blockNumber","type":"uint256"},{"internalType":"bytes32","name":"blockHash","type":"bytes32"},{"internalType":"bytes32","name":"stateRoot","type":"bytes32"},{"internalType":"uint256","name":"timestamp","type":"uint256"},{"internalType":"string","name":"chainName","type":"string"}],"internalType":"struct AnchorContract.BlockInfo","name":"","type":"tuple"}],"stateMutability":"view","type":"function"},{"inputs":[],"name":"getLastAnchoredBlock","outputs":[{"components":[{"internalType":"uint256","name":"blockNumber","type":"uint256"},{"internalType":"bytes32","name":"blockHash","type":"bytes32"},{"internalType":"bytes32","name":"stateRoot","type":"bytes32"},{"internalType":"uint256","name":"timestamp","type":"uint256"},{"internalType":"string","name":"chainName","type":"string"}],"internalType":"struct AnchorContract.BlockInfo","name":"","type":"tuple"}],"stateMutability":"view","type":"function"},{"inputs":[{"internalType":"uint256","name":"_count","type":"uint256"}],"name":"getLastNBlocks","outputs":[{"components":[{"internalType":"uint256","name":"blockNumber","type":"uint256"},{"internalType":"bytes32","name":"blockHash","type":"bytes32"},{"internalType":"bytes32","name":"stateRoot","type":"bytes32"},{"internalType":"uint256","name":"timestamp","type":"uint256"},{"internalType":"string","name":"chainName","type":"string"}],"internalType":"struct AnchorContract.BlockInfo[]","name":"","type":"tuple[]"}],"stateMutability":"view","type":"function"},{"inputs":[],"name":"getStats","outputs":[{"internalType":"uint256","name":"_totalAnchors","type":"uint256"},{"internalType":"uint256","name":"_lastAnchoredBlock","type":"uint256"},{"internalType":"string","name":"_thisChain","type":"string"},{"internalType":"string","name":"_anchoredChain","type":"string"}],"stateMutability":"view","type":"function"},{"inputs":[],"name":"lastAnchoredBlock","outputs":[{"internalType":"uint256","name":"","type":"uint256"}],"stateMutability":"view","type":"function"},{"inputs":[],"name":"owner","outputs":[{"internalType":"address","name":"","type":"address"}],"stateMutability":"view","type":"function"},{"inputs":[],"name":"thisChainName","outputs":[{"internalType":"string","name":"","type":"string"}],"stateMutability":"view","type":"function"},{"inputs":[],"name":"totalAnchors","outputs":[{"internalType":"uint256","name":"","type":"uint256"}],"stateMutability":"view","type":"function"},{"inputs":[{"internalType":"address","name":"newOwner","type":"address"}],"name":"transferOwnership","outputs":[],"stateMutability":"nonpayable","type":"function"}],"evm":{"bytecode":{"linkReferences":{},"object":"608060405234801561001057600080fd5b50604051612a0b380380612a0b83398181016040528101906100329190610279565b61004c670574951e2804cf2760c01b61010160201b60201c565b61006667056881d79c51af2c60c01b61010160201b60201c565b336000806101000a81548173ffffffffffffffffffffffffffffffffffffffff021916908373ffffffffffffffffffffffffffffffffffffffff1602179055506100c0675df0022a961ec90160c01b61010160201b60201c565b81600190816100cf9190610512565b506100ea67f399ee08c8f93b8260c01b61010160201b60201c565b80600290816100f99190610512565b5050506105e4565b50565b6000604051905090565b600080fd5b600080fd5b600080fd5b600080fd5b6000601f19601f8301169050919050565b7f4e487b7100000000000000000000000000000000000000000000000000000000600052604160045260246000fd5b61016b82610122565b810181811067ffffffffffffffff8211171561018a57610189610133565b5b80604052505050565b600061019d610104565b90506101a98282610162565b919050565b600067ffffffffffffffff8211156101c9576101c8610133565b5b6101d282610122565b9050602081019050919050565b60005b838110156101fd5780820151818401526020810190506101e2565b60008484015250505050565b600061021c610217846101ae565b610193565b9050828152602081018484840111156102385761023761011d565b5b6102438482856101df565b509392505050565b600082601f8301126102605761025f610118565b5b8151610270848260208601610209565b91505092915050565b600080604083850312156102905761028f61010e565b5b600083015167ffffffffffffffff8111156102ae576102ad610113565b5b6102ba8582860161024b565b925050602083015167ffffffffffffffff8111156102db576102da610113565b5b6102e78582860161024b565b9150509250929050565b600081519050919050565b7f4e487b7100000000000000000000000000000000000000000000000000000000600052602260045260246000fd5b6000600282049050600182168061034357607f821691505b602082108103610356576103556102fc565b5b50919050565b60008190508160005260206000209050919050565b60006020601f8301049050919050565b600082821b905092915050565b6000600883026103be7fffffffffffffffffffffffffffffffffffffffffffffffffffffffffffffffff82610381565b6103c88683610381565b95508019841693508086168417925050509392505050565b6000819050919050565b6000819050919050565b600061040f61040a610405846103e0565b6103ea565b6103e0565b9050919050565b6000819050919050565b610429836103f4565b61043d61043582610416565b84845461038e565b825550505050565b600090565b610452610445565b61045d818484610420565b505050565b5b818110156104815761047660008261044a565b600181019050610463565b5050565b601f8211156104c6576104978161035c565b6104a084610371565b810160208510156104af578190505b6104c36104bb85610371565b830182610462565b50505b505050565b600082821c905092915050565b60006104e9600019846008026104cb565b1980831691505092915050565b600061050283836104d8565b9150826002028217905092915050565b61051b826102f1565b67ffffffffffffffff81111561053457610533610133565b5b61053e825461032b565b610549828285610485565b600060209050601f83116001811461057c576000841561056a578287015190505b61057485826104f6565b8655506105dc565b601f19841661058a8661035c565b60005b828110156105b25784890151825560018201915060208501945060208101905061058d565b868310156105cf57848901516105cb601f8916826104d8565b8355505b6001600288020188555050505b505050505050565b612418806105f36000396000f3fe608060405234801561001057600080fd5b50600436106100af5760003560e01c80633858f5e7146100b457806338e36544146100d05780633fb00a37146100ee578063549a06c01461011e57806365a1930d1461014e5780638da5cb5b1461016c5780639ffb46351461018a578063ab1e7425146101a8578063b7e45161146101c6578063c59d4847146101fa578063d54604521461021b578063f2ce940c14610239578063f2fde38b1461026d575b600080fd5b6100ce60048036038101906100c9919061170a565b610289565b005b6100d86106ec565b6040516100e5919061176c565b60405180910390f35b61010860048036038101906101039190611787565b6106f2565b60405161011591906118d8565b60405180910390f35b61013860048036038101906101339190611787565b6108be565b6040516101459190611a32565b60405180910390f35b610156610d0c565b60405161016391906118d8565b60405180910390f35b610174610ee2565b6040516101819190611a95565b60405180910390f35b610192610f06565b60405161019f919061176c565b60405180910390f35b6101b0610f0c565b6040516101bd9190611afa565b60405180910390f35b6101e060048036038101906101db9190611787565b610f9a565b6040516101f1959493929190611b2b565b60405180910390f35b610202611058565b6040516102129493929190611b85565b60405180910390f35b6102236111ca565b6040516102309190611afa565b60405180910390f35b610253600480360381019061024e9190611787565b611258565b604051610264959493929190611b2b565b60405180910390f35b61028760048036038101906102829190611c04565b611326565b005b61029d67b008abd3c35511df60c01b61164f565b6102b167fdffb5926d3db14a60c01b61164f565b6102c5676a39f6ccb82bb10460c01b61164f565b6102d967704374f59c64d8c560c01b61164f565b6102ed67531e2f51daa8d17d60c01b61164f565b60008054906101000a900473ffffffffffffffffffffffffffffffffffffffff1673ffffffffffffffffffffffffffffffffffffffff163373ffffffffffffffffffffffffffffffffffffffff161461037b576040517f08c379a000000000000000000000000000000000000000000000000000000000815260040161037290611ca3565b60405180910390fd5b61038f67cc62fb2ea113cf3e60c01b61164f565b6103a367c0e3a1588ae00db760c01b61164f565b6103b767162cff5e55d408b060c01b61164f565b6103cb67efd95b087b78db0d60c01b61164f565b6103df67e76723d6b1bc8db860c01b61164f565b6103f3672a5adedc3b40140260c01b61164f565b61040767f40aa9656020d04a60c01b61164f565b600554831161044b576040517f08c379a000000000000000000000000000000000000000000000000000000000815260040161044290611d35565b60405180910390fd5b61045f67d5c1967e4b434c2c60c01b61164f565b61047367fc1b65cb33a0c02960c01b61164f565b610487671d60eca18633220660c01b61164f565b60006040518060a00160405280858152602001848152602001838152602001428152602001600280546104b990611d84565b80601f01602080910402602001604051908101604052809291908181526020018280546104e590611d84565b80156105325780601f1061050757610100808354040283529160200191610532565b820191906000526020600020905b81548152906001019060200180831161051557829003601f168201915b5050505050815250905061055067d5ca51238263250d60c01b61164f565b61056467fab886bc7e3c6b0060c01b61164f565b60038190806001815401808255809150506001900390600052602060002090600502016000909190919091506000820151816000015560208201518160010155604082015181600201556060820151816003015560808201518160040190816105cd9190611f90565b5050506105e4673f625b0777a49d9560c01b61164f565b80600460008681526020019081526020016000206000820151816000015560208201518160010155604082015181600201556060820151816003015560808201518160040190816106359190611f90565b5090505061064d67957653cd800c303a60c01b61164f565b8360058190555061066867cf52c7956b36478360c01b61164f565b6006600081548092919061067b90612091565b919050555061069467b75c1fd1bba70d2360c01b61164f565b6106a867be2da4d59ac25f2c60c01b61164f565b82847f56fc7a4eb9a3cdefa29adb0ea560e18cf1b5a77b5a9fc655f3c806ff62430573846002426040516106de9392919061215d565b60405180910390a350505050565b60055481565b6106fa611664565b61070e67f0178dc0940f5e6560c01b61164f565b61072267718a15175dff802460c01b61164f565b610736676c67840026c5cabb60c01b61164f565b61074a6782a72f3baf2a2d5260c01b61164f565b60006004600084815260200190815260200160002060000154036107a3576040517f08c379a000000000000000000000000000000000000000000000000000000000815260040161079a906121e7565b60405180910390fd5b6107b767e4d8ed17853fe71160c01b61164f565b6107cb67bfa2f4318ad1c4c960c01b61164f565b6107df67315489880a8875d660c01b61164f565b600460008381526020019081526020016000206040518060a00160405290816000820154815260200160018201548152602001600282015481526020016003820154815260200160048201805461083590611d84565b80601f016020809104026020016040519081016040528092919081815260200182805461086190611d84565b80156108ae5780601f10610883576101008083540402835291602001916108ae565b820191906000526020600020905b81548152906001019060200180831161089157829003601f168201915b5050505050815250509050919050565b60606108d467378dae7ad178cd4a60c01b61164f565b6108e8679adaa79dd97086a860c01b61164f565b6108fc672bd964e5407530cc60c01b61164f565b6109106733165b39dba1674760c01b61164f565b60008211610953576040517f08c379a000000000000000000000000000000000000000000000000000000000815260040161094a90612253565b60405180910390fd5b61096767c31758b346345ed560c01b61164f565b61097b671c77b3e398c153c460c01b61164f565b61098f674a9af00f82e11b5160c01b61164f565b6109a367f0117875425ddf9860c01b61164f565b6000600654116109e8576040517f08c379a00000000000000000000000000000000000000000000000000000000081526004016109df906122bf565b60405180910390fd5b6109fc67eb7dc4ef3746675f60c01b61164f565b610a1067091b40f9f05bc14460c01b61164f565b610a24677bcd91da49ef1e9f60c01b61164f565b6000826006541180610a465750610a45678bcaf6ccdbefb2cd60c01b611652565b5b8015610a625750610a61675d8666d15011ffbe60c01b611659565b5b610a6d576000610a7c565b82600654610a7b91906122df565b5b9050610a92671c6e8b3f32d2de8660c01b61164f565b610aa6673f85027ce23dcbb260c01b61164f565b6000836006541180610ac85750610ac767b887a6d7e314d64d60c01b611652565b5b8015610ae45750610ae367bfa6d1cbce19d6b060c01b611659565b5b610af057600654610af2565b835b9050610b086791f15fe041271f7460c01b61164f565b610b1c6791c04509d6ac128760c01b61164f565b60008167ffffffffffffffff811115610b3857610b37611db5565b5b604051908082528060200260200182016040528015610b7157816020015b610b5e611664565b815260200190600190039081610b565790505b509050610b88676d7fd543062dd32f60c01b61164f565b610b9c67f8f580e04982411860c01b61164f565b60005b82811015610cd857610bbb6711ea1f519615284360c01b61164f565b60038185610bc99190612313565b81548110610bda57610bd9612347565b5b90600052602060002090600502016040518060a001604052908160008201548152602001600182015481526020016002820154815260200160038201548152602001600482018054610c2b90611d84565b80601f0160208091040260200160405190810160405280929190818152602001828054610c5790611d84565b8015610ca45780601f10610c7957610100808354040283529160200191610ca4565b820191906000526020600020905b815481529060010190602001808311610c8757829003601f168201915b505050505081525050828281518110610cc057610cbf612347565b5b60200260200101819052508080600101915050610b9f565b50610ced6701e9807cbf876f2360c01b61164f565b610d01671147b1283093f6f060c01b61164f565b809350505050919050565b610d14611664565b610d2867ab47cb84a855f6c560c01b61164f565b610d3c67d56a35936850e49f60c01b61164f565b610d5067a4fc1cae6f69252360c01b61164f565b610d646725f313266f7394bd60c01b61164f565b600060065411610da9576040517f08c379a0000000000000000000000000000000000000000000000000000000008152600401610da0906122bf565b60405180910390fd5b610dbd670b442ca1a51ebac960c01b61164f565b610dd16723815b20dbf0d00860c01b61164f565b610de567fb22fe809c625d1460c01b61164f565b60036001600380549050610df991906122df565b81548110610e0a57610e09612347565b5b90600052602060002090600502016040518060a001604052908160008201548152602001600182015481526020016002820154815260200160038201548152602001600482018054610e5b90611d84565b80601f0160208091040260200160405190810160405280929190818152602001828054610e8790611d84565b8015610ed45780601f10610ea957610100808354040283529160200191610ed4565b820191906000526020600020905b815481529060010190602001808311610eb757829003601f168201915b505050505081525050905090565b60008054906101000a900473ffffffffffffffffffffffffffffffffffffffff1681565b60065481565b60028054610f1990611d84565b80601f0160208091040260200160405190810160405280929190818152602001828054610f4590611d84565b8015610f925780601f10610f6757610100808354040283529160200191610f92565b820191906000526020600020905b815481529060010190602001808311610f7557829003601f168201915b505050505081565b6004602052806000526040600020600091509050806000015490806001015490806002015490806003015490806004018054610fd590611d84565b80601f016020809104026020016040519081016040528092919081815260200182805461100190611d84565b801561104e5780601f106110235761010080835404028352916020019161104e565b820191906000526020600020905b81548152906001019060200180831161103157829003601f168201915b5050505050905085565b60008060608061107267d510da5fd6c16e4660c01b61164f565b6110866718ea1bf81733a96860c01b61164f565b61109a67ba4d94047a49532960c01b61164f565b600654600554600160028180546110b090611d84565b80601f01602080910402602001604051908101604052809291908181526020018280546110dc90611d84565b80156111295780601f106110fe57610100808354040283529160200191611129565b820191906000526020600020905b81548152906001019060200180831161110c57829003601f168201915b5050505050915080805461113c90611d84565b80601f016020809104026020016040519081016040528092919081815260200182805461116890611d84565b80156111b55780601f1061118a576101008083540402835291602001916111b5565b820191906000526020600020905b81548152906001019060200180831161119857829003601f168201915b50505050509050935093509350935090919293565b600180546111d790611d84565b80601f016020809104026020016040519081016040528092919081815260200182805461120390611d84565b80156112505780601f1061122557610100808354040283529160200191611250565b820191906000526020600020905b81548152906001019060200180831161123357829003601f168201915b505050505081565b6003818154811061126857600080fd5b90600052602060002090600502016000915090508060000154908060010154908060020154908060030154908060040180546112a390611d84565b80601f01602080910402602001604051908101604052809291908181526020018280546112cf90611d84565b801561131c5780601f106112f15761010080835404028352916020019161131c565b820191906000526020600020905b8154815290600101906020018083116112ff57829003601f168201915b5050505050905085565b61133a679f2deb490f2e426c60c01b61164f565b61134e67fdffb5926d3db14a60c01b61164f565b611362676a39f6ccb82bb10460c01b61164f565b61137667704374f59c64d8c560c01b61164f565b61138a67531e2f51daa8d17d60c01b61164f565b60008054906101000a900473ffffffffffffffffffffffffffffffffffffffff1673ffffffffffffffffffffffffffffffffffffffff163373ffffffffffffffffffffffffffffffffffffffff1614611418576040517f08c379a000000000000000000000000000000000000000000000000000000000815260040161140f90611ca3565b60405180910390fd5b61142c67cc62fb2ea113cf3e60c01b61164f565b61144067c0e3a1588ae00db760c01b61164f565b61145467801ee30c980c764460c01b61164f565b61146867dd46a07e5129485860c01b61164f565b61147c6756569801404fd95a60c01b61164f565b61149067d0954ccc9c991ade60c01b61164f565b6114a4675bc167e5eaa5888060c01b61164f565b600073ffffffffffffffffffffffffffffffffffffffff168173ffffffffffffffffffffffffffffffffffffffff1603611513576040517f08c379a000000000000000000000000000000000000000000000000000000000815260040161150a906123c2565b60405180910390fd5b61152767f24c5146e489463e60c01b61164f565b61153b67e025869e9578b7a160c01b61164f565b61154f672b2652da67fd02e360c01b61164f565b60008060009054906101000a900473ffffffffffffffffffffffffffffffffffffffff16905061158967cb8bfa684b6a554b60c01b61164f565b816000806101000a81548173ffffffffffffffffffffffffffffffffffffffff021916908373ffffffffffffffffffffffffffffffffffffffff1602179055506115dd675caffa8f6ca0858060c01b61164f565b6115f167f885cce220bdc92c60c01b61164f565b8173ffffffffffffffffffffffffffffffffffffffff168173ffffffffffffffffffffffffffffffffffffffff167f8be0079c531659141344cd1fd0a4f28419497f9722a3daafe3b4186f6b6457e060405160405180910390a35050565b50565b6000919050565b600060019050919050565b6040518060a0016040528060008152602001600080191681526020016000801916815260200160008152602001606081525090565b600080fd5b6000819050919050565b6116b18161169e565b81146116bc57600080fd5b50565b6000813590506116ce816116a8565b92915050565b6000819050919050565b6116e7816116d4565b81146116f257600080fd5b50565b600081359050611704816116de565b92915050565b60008060006060848603121561172357611722611699565b5b6000611731868287016116bf565b9350506020611742868287016116f5565b9250506040611753868287016116f5565b9150509250925092565b6117668161169e565b82525050565b6000602082019050611781600083018461175d565b92915050565b60006020828403121561179d5761179c611699565b5b60006117ab848285016116bf565b91505092915050565b6117bd8161169e565b82525050565b6117cc816116d4565b82525050565b600081519050919050565b600082825260208201905092915050565b60005b8381101561180c5780820151818401526020810190506117f1565b60008484015250505050565b6000601f19601f8301169050919050565b6000611834826117d2565b61183e81856117dd565b935061184e8185602086016117ee565b61185781611818565b840191505092915050565b600060a08301600083015161187a60008601826117b4565b50602083015161188d60208601826117c3565b5060408301516118a060408601826117c3565b5060608301516118b360608601826117b4565b50608083015184820360808601526118cb8282611829565b9150508091505092915050565b600060208201905081810360008301526118f28184611862565b905092915050565b600081519050919050565b600082825260208201905092915050565b6000819050602082019050919050565b600060a08301600083015161193e60008601826117b4565b50602083015161195160208601826117c3565b50604083015161196460408601826117c3565b50606083015161197760608601826117b4565b506080830151848203608086015261198f8282611829565b9150508091505092915050565b60006119a88383611926565b905092915050565b6000602082019050919050565b60006119c8826118fa565b6119d28185611905565b9350836020820285016119e485611916565b8060005b85811015611a205784840389528151611a01858261199c565b9450611a0c836119b0565b925060208a019950506001810190506119e8565b50829750879550505050505092915050565b60006020820190508181036000830152611a4c81846119bd565b905092915050565b600073ffffffffffffffffffffffffffffffffffffffff82169050919050565b6000611a7f82611a54565b9050919050565b611a8f81611a74565b82525050565b6000602082019050611aaa6000830184611a86565b92915050565b600082825260208201905092915050565b6000611acc826117d2565b611ad68185611ab0565b9350611ae68185602086016117ee565b611aef81611818565b840191505092915050565b60006020820190508181036000830152611b148184611ac1565b905092915050565b611b25816116d4565b82525050565b600060a082019050611b40600083018861175d565b611b4d6020830187611b1c565b611b5a6040830186611b1c565b611b67606083018561175d565b8181036080830152611b798184611ac1565b90509695505050505050565b6000608082019050611b9a600083018761175d565b611ba7602083018661175d565b8181036040830152611bb98185611ac1565b90508181036060830152611bcd8184611ac1565b905095945050505050565b611be181611a74565b8114611bec57600080fd5b50565b600081359050611bfe81611bd8565b92915050565b600060208284031215611c1a57611c19611699565b5b6000611c2884828501611bef565b91505092915050565b7f536f6c6f20656c2070726f706965746172696f20707565646520656a6563757460008201527f617220657374612066756e63696f6e0000000000000000000000000000000000602082015250565b6000611c8d602f83611ab0565b9150611c9882611c31565b604082019050919050565b60006020820190508181036000830152611cbc81611c80565b9050919050565b7f456c20626c6f7175652079612066756520616e636c61646f206f20657320616e60008201527f746572696f720000000000000000000000000000000000000000000000000000602082015250565b6000611d1f602683611ab0565b9150611d2a82611cc3565b604082019050919050565b60006020820190508181036000830152611d4e81611d12565b9050919050565b7f4e487b7100000000000000000000000000000000000000000000000000000000600052602260045260246000fd5b60006002820490506001821680611d9c57607f821691505b602082108103611daf57611dae611d55565b5b50919050565b7f4e487b7100000000000000000000000000000000000000000000000000000000600052604160045260246000fd5b60008190508160005260206000209050919050565b60006020601f8301049050919050565b600082821b905092915050565b600060088302611e467fffffffffffffffffffffffffffffffffffffffffffffffffffffffffffffffff82611e09565b611e508683611e09565b95508019841693508086168417925050509392505050565b6000819050919050565b6000611e8d611e88611e838461169e565b611e68565b61169e565b9050919050565b6000819050919050565b611ea783611e72565b611ebb611eb382611e94565b848454611e16565b825550505050565b600090565b611ed0611ec3565b611edb818484611e9e565b505050565b5b81811015611eff57611ef4600082611ec8565b600181019050611ee1565b5050565b601f821115611f4457611f1581611de4565b611f1e84611df9565b81016020851015611f2d578190505b611f41611f3985611df9565b830182611ee0565b50505b505050565b600082821c905092915050565b6000611f6760001984600802611f49565b1980831691505092915050565b6000611f808383611f56565b9150826002028217905092915050565b611f99826117d2565b67ffffffffffffffff811115611fb257611fb1611db5565b5b611fbc8254611d84565b611fc7828285611f03565b600060209050601f831160018114611ffa5760008415611fe8578287015190505b611ff28582611f74565b86555061205a565b601f19841661200886611de4565b60005b828110156120305784890151825560018201915060208501945060208101905061200b565b8683101561204d5784890151612049601f891682611f56565b8355505b6001600288020188555050505b505050505050565b7f4e487b7100000000000000000000000000000000000000000000000000000000600052601160045260246000fd5b600061209c8261169e565b91507fffffffffffffffffffffffffffffffffffffffffffffffffffffffffffffffff82036120ce576120cd612062565b5b600182019050919050565b600081546120e681611d84565b6120f08186611ab0565b9450600182166000811461210b576001811461212157612154565b60ff198316865281151560200286019350612154565b61212a85611de4565b60005b8381101561214c5781548189015260018201915060208101905061212d565b808801955050505b50505092915050565b60006060820190506121726000830186611b1c565b818103602083015261218481856120d9565b9050612193604083018461175d565b949350505050565b7f426c6f717565206e6f20656e636f6e747261646f000000000000000000000000600082015250565b60006121d1601483611ab0565b91506121dc8261219b565b602082019050919050565b60006020820190508181036000830152612200816121c4565b9050919050565b7f436f756e74206465626520736572206d61796f72206120300000000000000000600082015250565b600061223d601883611ab0565b915061224882612207565b602082019050919050565b6000602082019050818103600083015261226c81612230565b9050919050565b7f4e6f2068617920626c6f7175657320616e636c61646f73000000000000000000600082015250565b60006122a9601783611ab0565b91506122b482612273565b602082019050919050565b600060208201905081810360008301526122d88161229c565b9050919050565b60006122ea8261169e565b91506122f58361169e565b925082820390508181111561230d5761230c612062565b5b92915050565b600061231e8261169e565b91506123298361169e565b925082820190508082111561234157612340612062565b5b92915050565b7f4e487b7100000000000000000000000000000000000000000000000000000000600052603260045260246000fd5b7f4e7565766120646972656363696f6e206e6f2070756564652073657220307830600082015250565b60006123ac602083611ab0565b91506123b782612376565b602082019050919050565b600060208201905081810360008301526123db8161239f565b905091905056fea2646970667358221220897ce55324af055528d460fae006593c6fb4dca0f96c8c0ac84ba4bf3a4f579364736f6c634300081c0033","opcodes":"PUSH1 0x80 PUSH1 0x40 MSTORE CALLVALUE DUP1 ISZERO PUSH2 0x10 JUMPI PUSH1 0x0 DUP1 REVERT JUMPDEST POP PUSH1 0x40 MLOAD PUSH2 0x2A0B CODESIZE SUB DUP1 PUSH2 0x2A0B DUP4 CODECOPY DUP2 DUP2 ADD PUSH1 0x40 MSTORE DUP2 ADD SWAP1 PUSH2 0x32 SWAP2 SWAP1 PUSH2 0x279 JUMP JUMPDEST PUSH2 0x4C PUSH8 0x574951E2804CF27 PUSH1 0xC0 SHL PUSH2 0x101 PUSH1 0x20 SHL PUSH1 0x20 SHR JUMP JUMPDEST PUSH2 0x66 PUSH8 0x56881D79C51AF2C PUSH1 0xC0 SHL PUSH2 0x101 PUSH1 0x20 SHL PUSH1 0x20 SHR JUMP JUMPDEST CALLER PUSH1 0x0 DUP1 PUSH2 0x100 EXP DUP2 SLOAD DUP2 PUSH20 0xFFFFFFFFFFFFFFFFFFFFFFFFFFFFFFFFFFFFFFFF MUL NOT AND SWAP1 DUP4 PUSH20 0xFFFFFFFFFFFFFFFFFFFFFFFFFFFFFFFFFFFFFFFF AND MUL OR SWAP1 SSTORE POP PUSH2 0xC0 PUSH8 0x5DF0022A961EC901 PUSH1 0xC0 SHL PUSH2 0x101 PUSH1 0x20 SHL PUSH1 0x20 SHR JUMP JUMPDEST DUP2 PUSH1 0x1 SWAP1 DUP2 PUSH2 0xCF SWAP2 SWAP1 PUSH2 0x512 JUMP JUMPDEST POP PUSH2 0xEA PUSH8 0xF399EE08C8F93B82 PUSH1 0xC0 SHL PUSH2 0x101 PUSH1 0x20 SHL PUSH1 0x20 SHR JUMP JUMPDEST DUP1 PUSH1 0x2 SWAP1 DUP2 PUSH2 0xF9 SWAP2 SWAP1 PUSH2 0x512 JUMP JUMPDEST POP POP POP PUSH2 0x5E4 JUMP JUMPDEST POP JUMP JUMPDEST PUSH1 0x0 PUSH1 0x40 MLOAD SWAP1 POP SWAP1 JUMP JUMPDEST PUSH1 0x0 DUP1 REVERT JUMPDEST PUSH1 0x0 DUP1 REVERT JUMPDEST PUSH1 0x0 DUP1 REVERT JUMPDEST PUSH1 0x0 DUP1 REVERT JUMPDEST PUSH1 0x0 PUSH1 0x1F NOT PUSH1 0x1F DUP4 ADD AND SWAP1 POP SWAP2 SWAP1 POP JUMP JUMPDEST PUSH32 0x4E487B7100000000000000000000000000000000000000000000000000000000 PUSH1 0x0 MSTORE PUSH1 0x41 PUSH1 0x4 MSTORE PUSH1 0x24 PUSH1 0x0 REVERT JUMPDEST PUSH2 0x16B DUP3 PUSH2 0x122 JUMP JUMPDEST DUP2 ADD DUP2 DUP2 LT PUSH8 0xFFFFFFFFFFFFFFFF DUP3 GT OR ISZERO PUSH2 0x18A JUMPI PUSH2 0x189 PUSH2 0x133 JUMP JUMPDEST JUMPDEST DUP1 PUSH1 0x40 MSTORE POP POP POP JUMP JUMPDEST PUSH1 0x0 PUSH2 0x19D PUSH2 0x104 JUMP JUMPDEST SWAP1 POP PUSH2 0x1A9 DUP3 DUP3 PUSH2 0x162 JUMP JUMPDEST SWAP2 SWAP1 POP JUMP JUMPDEST PUSH1 0x0 PUSH8 0xFFFFFFFFFFFFFFFF DUP3 GT ISZERO PUSH2 0x1C9 JUMPI PUSH2 0x1C8 PUSH2 0x133 JUMP JUMPDEST JUMPDEST PUSH2 0x1D2 DUP3 PUSH2 0x122 JUMP JUMPDEST SWAP1 POP PUSH1 0x20 DUP2 ADD SWAP1 POP SWAP2 SWAP1 POP JUMP JUMPDEST PUSH1 0x0 JUMPDEST DUP4 DUP2 LT ISZERO PUSH2 0x1FD JUMPI DUP1 DUP3 ADD MLOAD DUP2 DUP5 ADD MSTORE PUSH1 0x20 DUP2 ADD SWAP1 POP PUSH2 0x1E2 JUMP JUMPDEST PUSH1 0x0 DUP5 DUP5 ADD MSTORE POP POP POP POP JUMP JUMPDEST PUSH1 0x0 PUSH2 0x21C PUSH2 0x217 DUP5 PUSH2 0x1AE JUMP JUMPDEST PUSH2 0x193 JUMP JUMPDEST SWAP1 POP DUP3 DUP2 MSTORE PUSH1 0x20 DUP2 ADD DUP5 DUP5 DUP5 ADD GT ISZERO PUSH2 0x238 JUMPI PUSH2 0x237 PUSH2 0x11D JUMP JUMPDEST JUMPDEST PUSH2 0x243 DUP5 DUP3 DUP6 PUSH2 0x1DF JUMP JUMPDEST POP SWAP4 SWAP3 POP POP POP JUMP JUMPDEST PUSH1 0x0 DUP3 PUSH1 0x1F DUP4 ADD SLT PUSH2 0x260 JUMPI PUSH2 0x25F PUSH2 0x118 JUMP JUMPDEST JUMPDEST DUP2 MLOAD PUSH2 0x270 DUP5 DUP3 PUSH1 0x20 DUP7 ADD PUSH2 0x209 JUMP JUMPDEST SWAP2 POP POP SWAP3 SWAP2 POP POP JUMP JUMPDEST PUSH1 0x0 DUP1 PUSH1 0x40 DUP4 DUP6 SUB SLT ISZERO PUSH2 0x290 JUMPI PUSH2 0x28F PUSH2 0x10E JUMP JUMPDEST JUMPDEST PUSH1 0x0 DUP4 ADD MLOAD PUSH8 0xFFFFFFFFFFFFFFFF DUP2 GT ISZERO PUSH2 0x2AE JUMPI PUSH2 0x2AD PUSH2 0x113 JUMP JUMPDEST JUMPDEST PUSH2 0x2BA DUP6 DUP3 DUP7 ADD PUSH2 0x24B JUMP JUMPDEST SWAP3 POP POP PUSH1 0x20 DUP4 ADD MLOAD PUSH8 0xFFFFFFFFFFFFFFFF DUP2 GT ISZERO PUSH2 0x2DB JUMPI PUSH2 0x2DA PUSH2 0x113 JUMP JUMPDEST JUMPDEST PUSH2 0x2E7 DUP6 DUP3 DUP7 ADD PUSH2 0x24B JUMP JUMPDEST SWAP2 POP POP SWAP3 POP SWAP3 SWAP1 POP JUMP JUMPDEST PUSH1 0x0 DUP2 MLOAD SWAP1 POP SWAP2 SWAP1 POP JUMP JUMPDEST PUSH32 0x4E487B7100000000000000000000000000000000000000000000000000000000 PUSH1 0x0 MSTORE PUSH1 0x22 PUSH1 0x4 MSTORE PUSH1 0x24 PUSH1 0x0 REVERT JUMPDEST PUSH1 0x0 PUSH1 0x2 DUP3 DIV SWAP1 POP PUSH1 0x1 DUP3 AND DUP1 PUSH2 0x343 JUMPI PUSH1 0x7F DUP3 AND SWAP2 POP JUMPDEST PUSH1 0x20 DUP3 LT DUP2 SUB PUSH2 0x356 JUMPI PUSH2 0x355 PUSH2 0x2FC JUMP JUMPDEST JUMPDEST POP SWAP2 SWAP1 POP JUMP JUMPDEST PUSH1 0x0 DUP2 SWAP1 POP DUP2 PUSH1 0x0 MSTORE PUSH1 0x20 PUSH1 0x0 KECCAK256 SWAP1 POP SWAP2 SWAP1 POP JUMP JUMPDEST PUSH1 0x0 PUSH1 0x20 PUSH1 0x1F DUP4 ADD DIV SWAP1 POP SWAP2 SWAP1 POP JUMP JUMPDEST PUSH1 0x0 DUP3 DUP3 SHL SWAP1 POP SWAP3 SWAP2 POP POP JUMP JUMPDEST PUSH1 0x0 PUSH1 0x8 DUP4 MUL PUSH2 0x3BE PUSH32 0xFFFFFFFFFFFFFFFFFFFFFFFFFFFFFFFFFFFFFFFFFFFFFFFFFFFFFFFFFFFFFFFF DUP3 PUSH2 0x381 JUMP JUMPDEST PUSH2 0x3C8 DUP7 DUP4 PUSH2 0x381 JUMP JUMPDEST SWAP6 POP DUP1 NOT DUP5 AND SWAP4 POP DUP1 DUP7 AND DUP5 OR SWAP3 POP POP POP SWAP4 SWAP3 POP POP POP JUMP JUMPDEST PUSH1 0x0 DUP2 SWAP1 POP SWAP2 SWAP1 POP JUMP JUMPDEST PUSH1 0x0 DUP2 SWAP1 POP SWAP2 SWAP1 POP JUMP JUMPDEST PUSH1 0x0 PUSH2 0x40F PUSH2 0x40A PUSH2 0x405 DUP5 PUSH2 0x3E0 JUMP JUMPDEST PUSH2 0x3EA JUMP JUMPDEST PUSH2 0x3E0 JUMP JUMPDEST SWAP1 POP SWAP2 SWAP1 POP JUMP JUMPDEST PUSH1 0x0 DUP2 SWAP1 POP SWAP2 SWAP1 POP JUMP JUMPDEST PUSH2 0x429 DUP4 PUSH2 0x3F4 JUMP JUMPDEST PUSH2 0x43D PUSH2 0x435 DUP3 PUSH2 0x416 JUMP JUMPDEST DUP5 DUP5 SLOAD PUSH2 0x38E JUMP JUMPDEST DUP3 SSTORE POP POP POP POP JUMP JUMPDEST PUSH1 0x0 SWAP1 JUMP JUMPDEST PUSH2 0x452 PUSH2 0x445 JUMP JUMPDEST PUSH2 0x45D DUP2 DUP5 DUP5 PUSH2 0x420 JUMP JUMPDEST POP POP POP JUMP JUMPDEST JUMPDEST DUP2 DUP2 LT ISZERO PUSH2 0x481 JUMPI PUSH2 0x476 PUSH1 0x0 DUP3 PUSH2 0x44A JUMP JUMPDEST PUSH1 0x1 DUP2 ADD SWAP1 POP PUSH2 0x463 JUMP JUMPDEST POP POP JUMP JUMPDEST PUSH1 0x1F DUP3 GT ISZERO PUSH2 0x4C6 JUMPI PUSH2 0x497 DUP2 PUSH2 0x35C JUMP JUMPDEST PUSH2 0x4A0 DUP5 PUSH2 0x371 JUMP JUMPDEST DUP2 ADD PUSH1 0x20 DUP6 LT ISZERO PUSH2 0x4AF JUMPI DUP2 SWAP1 POP JUMPDEST PUSH2 0x4C3 PUSH2 0x4BB DUP6 PUSH2 0x371 JUMP JUMPDEST DUP4 ADD DUP3 PUSH2 0x462 JUMP JUMPDEST POP POP JUMPDEST POP POP POP JUMP JUMPDEST PUSH1 0x0 DUP3 DUP3 SHR SWAP1 POP SWAP3 SWAP2 POP POP JUMP JUMPDEST PUSH1 0x0 PUSH2 0x4E9 PUSH1 0x0 NOT DUP5 PUSH1 0x8 MUL PUSH2 0x4CB JUMP JUMPDEST NOT DUP1 DUP4 AND SWAP2 POP POP SWAP3 SWAP2 POP POP JUMP JUMPDEST PUSH1 0x0 PUSH2 0x502 DUP4 DUP4 PUSH2 0x4D8 JUMP JUMPDEST SWAP2 POP DUP3 PUSH1 0x2 MUL DUP3 OR SWAP1 POP SWAP3 SWAP2 POP POP JUMP JUMPDEST PUSH2 0x51B DUP3 PUSH2 0x2F1 JUMP JUMPDEST PUSH8 0xFFFFFFFFFFFFFFFF DUP2 GT ISZERO PUSH2 0x534 JUMPI PUSH2 0x533 PUSH2 0x133 JUMP JUMPDEST JUMPDEST PUSH2 0x53E DUP3 SLOAD PUSH2 0x32B JUMP JUMPDEST PUSH2 0x549 DUP3 DUP3 DUP6 PUSH2 0x485 JUMP JUMPDEST PUSH1 0x0 PUSH1 0x20 SWAP1 POP PUSH1 0x1F DUP4 GT PUSH1 0x1 DUP2 EQ PUSH2 0x57C JUMPI PUSH1 0x0 DUP5 ISZERO PUSH2 0x56A JUMPI DUP3 DUP8 ADD MLOAD SWAP1 POP JUMPDEST PUSH2 0x574 DUP6 DUP3 PUSH2 0x4F6 JUMP JUMPDEST DUP7 SSTORE POP PUSH2 0x5DC JUMP JUMPDEST PUSH1 0x1F NOT DUP5 AND PUSH2 0x58A DUP7 PUSH2 0x35C JUMP JUMPDEST PUSH1 0x0 JUMPDEST DUP3 DUP2 LT ISZERO PUSH2 0x5B2 JUMPI DUP5 DUP10 ADD MLOAD DUP3 SSTORE PUSH1 0x1 DUP3 ADD SWAP2 POP PUSH1 0x20 DUP6 ADD SWAP5 POP PUSH1 0x20 DUP2 ADD SWAP1 POP PUSH2 0x58D JUMP JUMPDEST DUP7 DUP4 LT ISZERO PUSH2 0x5CF JUMPI DUP5 DUP10 ADD MLOAD PUSH2 0x5CB PUSH1 0x1F DUP10 AND DUP3 PUSH2 0x4D8 JUMP JUMPDEST DUP4 SSTORE POP JUMPDEST PUSH1 0x1 PUSH1 0x2 DUP9 MUL ADD DUP9 SSTORE POP POP POP JUMPDEST POP POP POP POP POP POP JUMP JUMPDEST PUSH2 0x2418 DUP1 PUSH2 0x5F3 PUSH1 0x0 CODECOPY PUSH1 0x0 RETURN INVALID PUSH1 0x80 PUSH1 0x40 MSTORE CALLVALUE DUP1 ISZERO PUSH2 0x10 JUMPI PUSH1 0x0 DUP1 REVERT JUMPDEST POP PUSH1 0x4 CALLDATASIZE LT PUSH2 0xAF JUMPI PUSH1 0x0 CALLDATALOAD PUSH1 0xE0 SHR DUP1 PUSH4 0x3858F5E7 EQ PUSH2 0xB4 JUMPI DUP1 PUSH4 0x38E36544 EQ PUSH2 0xD0 JUMPI DUP1 PUSH4 0x3FB00A37 EQ PUSH2 0xEE JUMPI DUP1 PUSH4 0x549A06C0 EQ PUSH2 0x11E JUMPI DUP1 PUSH4 0x65A1930D EQ PUSH2 0x14E JUMPI DUP1 PUSH4 0x8DA5CB5B EQ PUSH2 0x16C JUMPI DUP1 PUSH4 0x9FFB4635 EQ PUSH2 0x18A JUMPI DUP1 PUSH4 0xAB1E7425 EQ PUSH2 0x1A8 JUMPI DUP1 PUSH4 0xB7E45161 EQ PUSH2 0x1C6 JUMPI DUP1 PUSH4 0xC59D4847 EQ PUSH2 0x1FA JUMPI DUP1 PUSH4 0xD5460452 EQ PUSH2 0x21B JUMPI DUP1 PUSH4 0xF2CE940C EQ PUSH2 0x239 JUMPI DUP1 PUSH4 0xF2FDE38B EQ PUSH2 0x26D JUMPI JUMPDEST PUSH1 0x0 DUP1 REVERT JUMPDEST PUSH2 0xCE PUSH1 0x4 DUP1 CALLDATASIZE SUB DUP2 ADD SWAP1 PUSH2 0xC9 SWAP2 SWAP1 PUSH2 0x170A JUMP JUMPDEST PUSH2 0x289 JUMP JUMPDEST STOP JUMPDEST PUSH2 0xD8 PUSH2 0x6EC JUMP JUMPDEST PUSH1 0x40 MLOAD PUSH2 0xE5 SWAP2 SWAP1 PUSH2 0x176C JUMP JUMPDEST PUSH1 0x40 MLOAD DUP1 SWAP2 SUB SWAP1 RETURN JUMPDEST PUSH2 0x108 PUSH1 0x4 DUP1 CALLDATASIZE SUB DUP2 ADD SWAP1 PUSH2 0x103 SWAP2 SWAP1 PUSH2 0x1787 JUMP JUMPDEST PUSH2 0x6F2 JUMP JUMPDEST PUSH1 0x40 MLOAD PUSH2 0x115 SWAP2 SWAP1 PUSH2 0x18D8 JUMP JUMPDEST PUSH1 0x40 MLOAD DUP1 SWAP2 SUB SWAP1 RETURN JUMPDEST PUSH2 0x138 PUSH1 0x4 DUP1 CALLDATASIZE SUB DUP2 ADD SWAP1 PUSH2 0x133 SWAP2 SWAP1 PUSH2 0x1787 JUMP JUMPDEST PUSH2 0x8BE JUMP JUMPDEST PUSH1 0x40 MLOAD PUSH2 0x145 SWAP2 SWAP1 PUSH2 0x1A32 JUMP JUMPDEST PUSH1 0x40 MLOAD DUP1 SWAP2 SUB SWAP1 RETURN JUMPDEST PUSH2 0x156 PUSH2 0xD0C JUMP JUMPDEST PUSH1 0x40 MLOAD PUSH2 0x163 SWAP2 SWAP1 PUSH2 0x18D8 JUMP JUMPDEST PUSH1 0x40 MLOAD DUP1 SWAP2 SUB SWAP1 RETURN JUMPDEST PUSH2 0x174 PUSH2 0xEE2 JUMP JUMPDEST PUSH1 0x40 MLOAD PUSH2 0x181 SWAP2 SWAP1 PUSH2 0x1A95 JUMP JUMPDEST PUSH1 0x40 MLOAD DUP1 SWAP2 SUB SWAP1 RETURN JUMPDEST PUSH2 0x192 PUSH2 0xF06 JUMP JUMPDEST PUSH1 0x40 MLOAD PUSH2 0x19F SWAP2 SWAP1 PUSH2 0x176C JUMP JUMPDEST PUSH1 0x40 MLOAD DUP1 SWAP2 SUB SWAP1 RETURN JUMPDEST PUSH2 0x1B0 PUSH2 0xF0C JUMP JUMPDEST PUSH1 0x40 MLOAD PUSH2 0x1BD SWAP2 SWAP1 PUSH2 0x1AFA JUMP JUMPDEST PUSH1 0x40 MLOAD DUP1 SWAP2 SUB SWAP1 RETURN JUMPDEST PUSH2 0x1E0 PUSH1 0x4 DUP1 CALLDATASIZE SUB DUP2 ADD SWAP1 PUSH2 0x1DB SWAP2 SWAP1 PUSH2 0x1787 JUMP JUMPDEST PUSH2 0xF9A JUMP JUMPDEST PUSH1 0x40 MLOAD PUSH2 0x1F1 SWAP6 SWAP5 SWAP4 SWAP3 SWAP2 SWAP1 PUSH2 0x1B2B JUMP JUMPDEST PUSH1 0x40 MLOAD DUP1 SWAP2 SUB SWAP1 RETURN JUMPDEST PUSH2 0x202 PUSH2 0x1058 JUMP JUMPDEST PUSH1 0x40 MLOAD PUSH2 0x212 SWAP5 SWAP4 SWAP3 SWAP2 SWAP1 PUSH2 0x1B85 JUMP JUMPDEST PUSH1 0x40 MLOAD DUP1 SWAP2 SUB SWAP1 RETURN JUMPDEST PUSH2 0x223 PUSH2 0x11CA JUMP JUMPDEST PUSH1 0x40 MLOAD PUSH2 0x230 SWAP2 SWAP1 PUSH2 0x1AFA JUMP JUMPDEST PUSH1 0x40 MLOAD DUP1 SWAP2 SUB SWAP1 RETURN JUMPDEST PUSH2 0x253 PUSH1 0x4 DUP1 CALLDATASIZE SUB DUP2 ADD SWAP1 PUSH2 0x24E SWAP2 SWAP1 PUSH2 0x1787 JUMP JUMPDEST PUSH2 0x1258 JUMP JUMPDEST PUSH1 0x40 MLOAD PUSH2 0x264 SWAP6 SWAP5 SWAP4 SWAP3 SWAP2 SWAP1 PUSH2 0x1B2B JUMP JUMPDEST PUSH1 0x40 MLOAD DUP1 SWAP2 SUB SWAP1 RETURN JUMPDEST PUSH2 0x287 PUSH1 0x4 DUP1 CALLDATASIZE SUB DUP2 ADD SWAP1 PUSH2 0x282 SWAP2 SWAP1 PUSH2 0x1C04 JUMP JUMPDEST PUSH2 0x1326 JUMP JUMPDEST STOP JUMPDEST PUSH2 0x29D PUSH8 0xB008ABD3C35511DF PUSH1 0xC0 SHL PUSH2 0x164F JUMP JUMPDEST PUSH2 0x2B1 PUSH8 0xFDFFB5926D3DB14A PUSH1 0xC0 SHL PUSH2 0x164F JUMP JUMPDEST PUSH2 0x2C5 PUSH8 0x6A39F6CCB82BB104 PUSH1 0xC0 SHL PUSH2 0x164F JUMP JUMPDEST PUSH2 0x2D9 PUSH8 0x704374F59C64D8C5 PUSH1 0xC0 SHL PUSH2 0x164F JUMP JUMPDEST PUSH2 0x2ED PUSH8 0x531E2F51DAA8D17D PUSH1 0xC0 SHL PUSH2 0x164F JUMP JUMPDEST PUSH1 0x0 DUP1 SLOAD SWAP1 PUSH2 0x100 EXP SWAP1 DIV PUSH20 0xFFFFFFFFFFFFFFFFFFFFFFFFFFFFFFFFFFFFFFFF AND PUSH20 0xFFFFFFFFFFFFFFFFFFFFFFFFFFFFFFFFFFFFFFFF AND CALLER PUSH20 0xFFFFFFFFFFFFFFFFFFFFFFFFFFFFFFFFFFFFFFFF AND EQ PUSH2 0x37B JUMPI PUSH1 0x40 MLOAD PUSH32 0x8C379A000000000000000000000000000000000000000000000000000000000 DUP2 MSTORE PUSH1 0x4 ADD PUSH2 0x372 SWAP1 PUSH2 0x1CA3 JUMP JUMPDEST PUSH1 0x40 MLOAD DUP1 SWAP2 SUB SWAP1 REVERT JUMPDEST PUSH2 0x38F PUSH8 0xCC62FB2EA113CF3E PUSH1 0xC0 SHL PUSH2 0x164F JUMP JUMPDEST PUSH2 0x3A3 PUSH8 0xC0E3A1588AE00DB7 PUSH1 0xC0 SHL PUSH2 0x164F JUMP JUMPDEST PUSH2 0x3B7 PUSH8 0x162CFF5E55D408B0 PUSH1 0xC0 SHL PUSH2 0x164F JUMP JUMPDEST PUSH2 0x3CB PUSH8 0xEFD95B087B78DB0D PUSH1 0xC0 SHL PUSH2 0x164F JUMP JUMPDEST PUSH2 0x3DF PUSH8 0xE76723D6B1BC8DB8 PUSH1 0xC0 SHL PUSH2 0x164F JUMP JUMPDEST PUSH2 0x3F3 PUSH8 0x2A5ADEDC3B401402 PUSH1 0xC0 SHL PUSH2 0x164F JUMP JUMPDEST PUSH2 0x407 PUSH8 0xF40AA9656020D04A PUSH1 0xC0 SHL PUSH2 0x164F JUMP JUMPDEST PUSH1 0x5 SLOAD DUP4 GT PUSH2 0x44B JUMPI PUSH1 0x40 MLOAD PUSH32 0x8C379A000000000000000000000000000000000000000000000000000000000 DUP2 MSTORE PUSH1 0x4 ADD PUSH2 0x442 SWAP1 PUSH2 0x1D35 JUMP JUMPDEST PUSH1 0x40 MLOAD DUP1 SWAP2 SUB SWAP1 REVERT JUMPDEST PUSH2 0x45F PUSH8 0xD5C1967E4B434C2C PUSH1 0xC0 SHL PUSH2 0x164F JUMP JUMPDEST PUSH2 0x473 PUSH8 0xFC1B65CB33A0C029 PUSH1 0xC0 SHL PUSH2 0x164F JUMP JUMPDEST PUSH2 0x487 PUSH8 0x1D60ECA186332206 PUSH1 0xC0 SHL PUSH2 0x164F JUMP JUMPDEST PUSH1 0x0 PUSH1 0x40 MLOAD DUP1 PUSH1 0xA0 ADD PUSH1 0x40 MSTORE DUP1 DUP6 DUP2 MSTORE PUSH1 0x20 ADD DUP5 DUP2 MSTORE PUSH1 0x20 ADD DUP4 DUP2 MSTORE PUSH1 0x20 ADD TIMESTAMP DUP2 MSTORE PUSH1 0x20 ADD PUSH1 0x2 DUP1 SLOAD PUSH2 0x4B9 SWAP1 PUSH2 0x1D84 JUMP JUMPDEST DUP1 PUSH1 0x1F ADD PUSH1 0x20 DUP1 SWAP2 DIV MUL PUSH1 0x20 ADD PUSH1 0x40 MLOAD SWAP1 DUP2 ADD PUSH1 0x40 MSTORE DUP1 SWAP3 SWAP2 SWAP1 DUP2 DUP2 MSTORE PUSH1 0x20 ADD DUP3 DUP1 SLOAD PUSH2 0x4E5 SWAP1 PUSH2 0x1D84 JUMP JUMPDEST DUP1 ISZERO PUSH2 0x532 JUMPI DUP1 PUSH1 0x1F LT PUSH2 0x507 JUMPI PUSH2 0x100 DUP1 DUP4 SLOAD DIV MUL DUP4 MSTORE SWAP2 PUSH1 0x20 ADD SWAP2 PUSH2 0x532 JUMP JUMPDEST DUP3 ADD SWAP2 SWAP1 PUSH1 0x0 MSTORE PUSH1 0x20 PUSH1 0x0 KECCAK256 SWAP1 JUMPDEST DUP2 SLOAD DUP2 MSTORE SWAP1 PUSH1 0x1 ADD SWAP1 PUSH1 0x20 ADD DUP1 DUP4 GT PUSH2 0x515 JUMPI DUP3 SWAP1 SUB PUSH1 0x1F AND DUP3 ADD SWAP2 JUMPDEST POP POP POP POP POP DUP2 MSTORE POP SWAP1 POP PUSH2 0x550 PUSH8 0xD5CA51238263250D PUSH1 0xC0 SHL PUSH2 0x164F JUMP JUMPDEST PUSH2 0x564 PUSH8 0xFAB886BC7E3C6B00 PUSH1 0xC0 SHL PUSH2 0x164F JUMP JUMPDEST PUSH1 0x3 DUP2 SWAP1 DUP1 PUSH1 0x1 DUP2 SLOAD ADD DUP1 DUP3 SSTORE DUP1 SWAP2 POP POP PUSH1 0x1 SWAP1 SUB SWAP1 PUSH1 0x0 MSTORE PUSH1 0x20 PUSH1 0x0 KECCAK256 SWAP1 PUSH1 0x5 MUL ADD PUSH1 0x0 SWAP1 SWAP2 SWAP1 SWAP2 SWAP1 SWAP2 POP PUSH1 0x0 DUP3 ADD MLOAD DUP2 PUSH1 0x0 ADD SSTORE PUSH1 0x20 DUP3 ADD MLOAD DUP2 PUSH1 0x1 ADD SSTORE PUSH1 0x40 DUP3 ADD MLOAD DUP2 PUSH1 0x2 ADD SSTORE PUSH1 0x60 DUP3 ADD MLOAD DUP2 PUSH1 0x3 ADD SSTORE PUSH1 0x80 DUP3 ADD MLOAD DUP2 PUSH1 0x4 ADD SWAP1 DUP2 PUSH2 0x5CD SWAP2 SWAP1 PUSH2 0x1F90 JUMP JUMPDEST POP POP POP PUSH2 0x5E4 PUSH8 0x3F625B0777A49D95 PUSH1 0xC0 SHL PUSH2 0x164F JUMP JUMPDEST DUP1 PUSH1 0x4 PUSH1 0x0 DUP7 DUP2 MSTORE PUSH1 0x20 ADD SWAP1 DUP2 MSTORE PUSH1 0x20 ADD PUSH1 0x0 KECCAK256 PUSH1 0x0 DUP3 ADD MLOAD DUP2 PUSH1 0x0 ADD SSTORE PUSH1 0x20 DUP3 ADD MLOAD DUP2 PUSH1 0x1 ADD SSTORE PUSH1 0x40 DUP3 ADD MLOAD DUP2 PUSH1 0x2 ADD SSTORE PUSH1 0x60 DUP3 ADD MLOAD DUP2 PUSH1 0x3 ADD SSTORE PUSH1 0x80 DUP3 ADD MLOAD DUP2 PUSH1 0x4 ADD SWAP1 DUP2 PUSH2 0x635 SWAP2 SWAP1 PUSH2 0x1F90 JUMP JUMPDEST POP SWAP1 POP POP PUSH2 0x64D PUSH8 0x957653CD800C303A PUSH1 0xC0 SHL PUSH2 0x164F JUMP JUMPDEST DUP4 PUSH1 0x5 DUP2 SWAP1 SSTORE POP PUSH2 0x668 PUSH8 0xCF52C7956B364783 PUSH1 0xC0 SHL PUSH2 0x164F JUMP JUMPDEST PUSH1 0x6 PUSH1 0x0 DUP2 SLOAD DUP1 SWAP3 SWAP2 SWAP1 PUSH2 0x67B SWAP1 PUSH2 0x2091 JUMP JUMPDEST SWAP2 SWAP1 POP SSTORE POP PUSH2 0x694 PUSH8 0xB75C1FD1BBA70D23 PUSH1 0xC0 SHL PUSH2 0x164F JUMP JUMPDEST PUSH2 0x6A8 PUSH8 0xBE2DA4D59AC25F2C PUSH1 0xC0 SHL PUSH2 0x164F JUMP JUMPDEST DUP3 DUP5 PUSH32 0x56FC7A4EB9A3CDEFA29ADB0EA560E18CF1B5A77B5A9FC655F3C806FF62430573 DUP5 PUSH1 0x2 TIMESTAMP PUSH1 0x40 MLOAD PUSH2 0x6DE SWAP4 SWAP3 SWAP2 SWAP1 PUSH2 0x215D JUMP JUMPDEST PUSH1 0x40 MLOAD DUP1 SWAP2 SUB SWAP1 LOG3 POP POP POP POP JUMP JUMPDEST PUSH1 0x5 SLOAD DUP2 JUMP JUMPDEST PUSH2 0x6FA PUSH2 0x1664 JUMP JUMPDEST PUSH2 0x70E PUSH8 0xF0178DC0940F5E65 PUSH1 0xC0 SHL PUSH2 0x164F JUMP JUMPDEST PUSH2 0x722 PUSH8 0x718A15175DFF8024 PUSH1 0xC0 SHL PUSH2 0x164F JUMP JUMPDEST PUSH2 0x736 PUSH8 0x6C67840026C5CABB PUSH1 0xC0 SHL PUSH2 0x164F JUMP JUMPDEST PUSH2 0x74A PUSH8 0x82A72F3BAF2A2D52 PUSH1 0xC0 SHL PUSH2 0x164F JUMP JUMPDEST PUSH1 0x0 PUSH1 0x4 PUSH1 0x0 DUP5 DUP2 MSTORE PUSH1 0x20 ADD SWAP1 DUP2 MSTORE PUSH1 0x20 ADD PUSH1 0x0 KECCAK256 PUSH1 0x0 ADD SLOAD SUB PUSH2 0x7A3 JUMPI PUSH1 0x40 MLOAD PUSH32 0x8C379A000000000000000000000000000000000000000000000000000000000 DUP2 MSTORE PUSH1 0x4 ADD PUSH2 0x79A SWAP1 PUSH2 0x21E7 JUMP JUMPDEST PUSH1 0x40 MLOAD DUP1 SWAP2 SUB SWAP1 REVERT JUMPDEST PUSH2 0x7B7 PUSH8 0xE4D8ED17853FE711 PUSH1 0xC0 SHL PUSH2 0x164F JUMP JUMPDEST PUSH2 0x7CB PUSH8 0xBFA2F4318AD1C4C9 PUSH1 0xC0 SHL PUSH2 0x164F JUMP JUMPDEST PUSH2 0x7DF PUSH8 0x315489880A8875D6 PUSH1 0xC0 SHL PUSH2 0x164F JUMP JUMPDEST PUSH1 0x4 PUSH1 0x0 DUP4 DUP2 MSTORE PUSH1 0x20 ADD SWAP1 DUP2 MSTORE PUSH1 0x20 ADD PUSH1 0x0 KECCAK256 PUSH1 0x40 MLOAD DUP1 PUSH1 0xA0 ADD PUSH1 0x40 MSTORE SWAP1 DUP2 PUSH1 0x0 DUP3 ADD SLOAD DUP2 MSTORE PUSH1 0x20 ADD PUSH1 0x1 DUP3 ADD SLOAD DUP2 MSTORE PUSH1 0x20 ADD PUSH1 0x2 DUP3 ADD SLOAD DUP2 MSTORE PUSH1 0x20 ADD PUSH1 0x3 DUP3 ADD SLOAD DUP2 MSTORE PUSH1 0x20 ADD PUSH1 0x4 DUP3 ADD DUP1 SLOAD PUSH2 0x835 SWAP1 PUSH2 0x1D84 JUMP JUMPDEST DUP1 PUSH1 0x1F ADD PUSH1 0x20 DUP1 SWAP2 DIV MUL PUSH1 0x20 ADD PUSH1 0x40 MLOAD SWAP1 DUP2 ADD PUSH1 0x40 MSTORE DUP1 SWAP3 SWAP2 SWAP1 DUP2 DUP2 MSTORE PUSH1 0x20 ADD DUP3 DUP1 SLOAD PUSH2 0x861 SWAP1 PUSH2 0x1D84 JUMP JUMPDEST DUP1 ISZERO PUSH2 0x8AE JUMPI DUP1 PUSH1 0x1F LT PUSH2 0x883 JUMPI PUSH2 0x100 DUP1 DUP4 SLOAD DIV MUL DUP4 MSTORE SWAP2 PUSH1 0x20 ADD SWAP2 PUSH2 0x8AE JUMP JUMPDEST DUP3 ADD SWAP2 SWAP1 PUSH1 0x0 MSTORE PUSH1 0x20 PUSH1 0x0 KECCAK256 SWAP1 JUMPDEST DUP2 SLOAD DUP2 MSTORE SWAP1 PUSH1 0x1 ADD SWAP1 PUSH1 0x20 ADD DUP1 DUP4 GT PUSH2 0x891 JUMPI DUP3 SWAP1 SUB PUSH1 0x1F AND DUP3 ADD SWAP2 JUMPDEST POP POP POP POP POP DUP2 MSTORE POP POP SWAP1 POP SWAP2 SWAP1 POP JUMP JUMPDEST PUSH1 0x60 PUSH2 0x8D4 PUSH8 0x378DAE7AD178CD4A PUSH1 0xC0 SHL PUSH2 0x164F JUMP JUMPDEST PUSH2 0x8E8 PUSH8 0x9ADAA79DD97086A8 PUSH1 0xC0 SHL PUSH2 0x164F JUMP JUMPDEST PUSH2 0x8FC PUSH8 0x2BD964E5407530CC PUSH1 0xC0 SHL PUSH2 0x164F JUMP JUMPDEST PUSH2 0x910 PUSH8 0x33165B39DBA16747 PUSH1 0xC0 SHL PUSH2 0x164F JUMP JUMPDEST PUSH1 0x0 DUP3 GT PUSH2 0x953 JUMPI PUSH1 0x40 MLOAD PUSH32 0x8C379A000000000000000000000000000000000000000000000000000000000 DUP2 MSTORE PUSH1 0x4 ADD PUSH2 0x94A SWAP1 PUSH2 0x2253 JUMP JUMPDEST PUSH1 0x40 MLOAD DUP1 SWAP2 SUB SWAP1 REVERT JUMPDEST PUSH2 0x967 PUSH8 0xC31758B346345ED5 PUSH1 0xC0 SHL PUSH2 0x164F JUMP JUMPDEST PUSH2 0x97B PUSH8 0x1C77B3E398C153C4 PUSH1 0xC0 SHL PUSH2 0x164F JUMP JUMPDEST PUSH2 0x98F PUSH8 0x4A9AF00F82E11B51 PUSH1 0xC0 SHL PUSH2 0x164F JUMP JUMPDEST PUSH2 0x9A3 PUSH8 0xF0117875425DDF98 PUSH1 0xC0 SHL PUSH2 0x164F JUMP JUMPDEST PUSH1 0x0 PUSH1 0x6 SLOAD GT PUSH2 0x9E8 JUMPI PUSH1 0x40 MLOAD PUSH32 0x8C379A000000000000000000000000000000000000000000000000000000000 DUP2 MSTORE PUSH1 0x4 ADD PUSH2 0x9DF SWAP1 PUSH2 0x22BF JUMP JUMPDEST PUSH1 0x40 MLOAD DUP1 SWAP2 SUB SWAP1 REVERT JUMPDEST PUSH2 0x9FC PUSH8 0xEB7DC4EF3746675F PUSH1 0xC0 SHL PUSH2 0x164F JUMP JUMPDEST PUSH2 0xA10 PUSH8 0x91B40F9F05BC144 PUSH1 0xC0 SHL PUSH2 0x164F JUMP JUMPDEST PUSH2 0xA24 PUSH8 0x7BCD91DA49EF1E9F PUSH1 0xC0 SHL PUSH2 0x164F JUMP JUMPDEST PUSH1 0x0 DUP3 PUSH1 0x6 SLOAD GT DUP1 PUSH2 0xA46 JUMPI POP PUSH2 0xA45 PUSH8 0x8BCAF6CCDBEFB2CD PUSH1 0xC0 SHL PUSH2 0x1652 JUMP JUMPDEST JUMPDEST DUP1 ISZERO PUSH2 0xA62 JUMPI POP PUSH2 0xA61 PUSH8 0x5D8666D15011FFBE PUSH1 0xC0 SHL PUSH2 0x1659 JUMP JUMPDEST JUMPDEST PUSH2 0xA6D JUMPI PUSH1 0x0 PUSH2 0xA7C JUMP JUMPDEST DUP3 PUSH1 0x6 SLOAD PUSH2 0xA7B SWAP2 SWAP1 PUSH2 0x22DF JUMP JUMPDEST JUMPDEST SWAP1 POP PUSH2 0xA92 PUSH8 0x1C6E8B3F32D2DE86 PUSH1 0xC0 SHL PUSH2 0x164F JUMP JUMPDEST PUSH2 0xAA6 PUSH8 0x3F85027CE23DCBB2 PUSH1 0xC0 SHL PUSH2 0x164F JUMP JUMPDEST PUSH1 0x0 DUP4 PUSH1 0x6 SLOAD GT DUP1 PUSH2 0xAC8 JUMPI POP PUSH2 0xAC7 PUSH8 0xB887A6D7E314D64D PUSH1 0xC0 SHL PUSH2 0x1652 JUMP JUMPDEST JUMPDEST DUP1 ISZERO PUSH2 0xAE4 JUMPI POP PUSH2 0xAE3 PUSH8 0xBFA6D1CBCE19D6B0 PUSH1 0xC0 SHL PUSH2 0x1659 JUMP JUMPDEST JUMPDEST PUSH2 0xAF0 JUMPI PUSH1 0x6 SLOAD PUSH2 0xAF2 JUMP JUMPDEST DUP4 JUMPDEST SWAP1 POP PUSH2 0xB08 PUSH8 0x91F15FE041271F74 PUSH1 0xC0 SHL PUSH2 0x164F JUMP JUMPDEST PUSH2 0xB1C PUSH8 0x91C04509D6AC1287 PUSH1 0xC0 SHL PUSH2 0x164F JUMP JUMPDEST PUSH1 0x0 DUP2 PUSH8 0xFFFFFFFFFFFFFFFF DUP2 GT ISZERO PUSH2 0xB38 JUMPI PUSH2 0xB37 PUSH2 0x1DB5 JUMP JUMPDEST JUMPDEST PUSH1 0x40 MLOAD SWAP1 DUP1 DUP3 MSTORE DUP1 PUSH1 0x20 MUL PUSH1 0x20 ADD DUP3 ADD PUSH1 0x40 MSTORE DUP1 ISZERO PUSH2 0xB71 JUMPI DUP2 PUSH1 0x20 ADD JUMPDEST PUSH2 0xB5E PUSH2 0x1664 JUMP JUMPDEST DUP2 MSTORE PUSH1 0x20 ADD SWAP1 PUSH1 0x1 SWAP1 SUB SWAP1 DUP2 PUSH2 0xB56 JUMPI SWAP1 POP JUMPDEST POP SWAP1 POP PUSH2 0xB88 PUSH8 0x6D7FD543062DD32F PUSH1 0xC0 SHL PUSH2 0x164F JUMP JUMPDEST PUSH2 0xB9C PUSH8 0xF8F580E049824118 PUSH1 0xC0 SHL PUSH2 0x164F JUMP JUMPDEST PUSH1 0x0 JUMPDEST DUP3 DUP2 LT ISZERO PUSH2 0xCD8 JUMPI PUSH2 0xBBB PUSH8 0x11EA1F5196152843 PUSH1 0xC0 SHL PUSH2 0x164F JUMP JUMPDEST PUSH1 0x3 DUP2 DUP6 PUSH2 0xBC9 SWAP2 SWAP1 PUSH2 0x2313 JUMP JUMPDEST DUP2 SLOAD DUP2 LT PUSH2 0xBDA JUMPI PUSH2 0xBD9 PUSH2 0x2347 JUMP JUMPDEST JUMPDEST SWAP1 PUSH1 0x0 MSTORE PUSH1 0x20 PUSH1 0x0 KECCAK256 SWAP1 PUSH1 0x5 MUL ADD PUSH1 0x40 MLOAD DUP1 PUSH1 0xA0 ADD PUSH1 0x40 MSTORE SWAP1 DUP2 PUSH1 0x0 DUP3 ADD SLOAD DUP2 MSTORE PUSH1 0x20 ADD PUSH1 0x1 DUP3 ADD SLOAD DUP2 MSTORE PUSH1 0x20 ADD PUSH1 0x2 DUP3 ADD SLOAD DUP2 MSTORE PUSH1 0x20 ADD PUSH1 0x3 DUP3 ADD SLOAD DUP2 MSTORE PUSH1 0x20 ADD PUSH1 0x4 DUP3 ADD DUP1 SLOAD PUSH2 0xC2B SWAP1 PUSH2 0x1D84 JUMP JUMPDEST DUP1 PUSH1 0x1F ADD PUSH1 0x20 DUP1 SWAP2 DIV MUL PUSH1 0x20 ADD PUSH1 0x40 MLOAD SWAP1 DUP2 ADD PUSH1 0x40 MSTORE DUP1 SWAP3 SWAP2 SWAP1 DUP2 DUP2 MSTORE PUSH1 0x20 ADD DUP3 DUP1 SLOAD PUSH2 0xC57 SWAP1 PUSH2 0x1D84 JUMP JUMPDEST DUP1 ISZERO PUSH2 0xCA4 JUMPI DUP1 PUSH1 0x1F LT PUSH2 0xC79 JUMPI PUSH2 0x100 DUP1 DUP4 SLOAD DIV MUL DUP4 MSTORE SWAP2 PUSH1 0x20 ADD SWAP2 PUSH2 0xCA4 JUMP JUMPDEST DUP3 ADD SWAP2 SWAP1 PUSH1 0x0 MSTORE PUSH1 0x20 PUSH1 0x0 KECCAK256 SWAP1 JUMPDEST DUP2 SLOAD DUP2 MSTORE SWAP1 PUSH1 0x1 ADD SWAP1 PUSH1 0x20 ADD DUP1 DUP4 GT PUSH2 0xC87 JUMPI DUP3 SWAP1 SUB PUSH1 0x1F AND DUP3 ADD SWAP2 JUMPDEST POP POP POP POP POP DUP2 MSTORE POP POP DUP3 DUP3 DUP2 MLOAD DUP2 LT PUSH2 0xCC0 JUMPI PUSH2 0xCBF PUSH2 0x2347 JUMP JUMPDEST JUMPDEST PUSH1 0x20 MUL PUSH1 0x20 ADD ADD DUP2 SWAP1 MSTORE POP DUP1 DUP1 PUSH1 0x1 ADD SWAP2 POP POP PUSH2 0xB9F JUMP JUMPDEST POP PUSH2 0xCED PUSH8 0x1E9807CBF876F23 PUSH1 0xC0 SHL PUSH2 0x164F JUMP JUMPDEST PUSH2 0xD01 PUSH8 0x1147B1283093F6F0 PUSH1 0xC0 SHL PUSH2 0x164F JUMP JUMPDEST DUP1 SWAP4 POP POP POP POP SWAP2 SWAP1 POP JUMP JUMPDEST PUSH2 0xD14 PUSH2 0x1664 JUMP JUMPDEST PUSH2 0xD28 PUSH8 0xAB47CB84A855F6C5 PUSH1 0xC0 SHL PUSH2 0x164F JUMP JUMPDEST PUSH2 0xD3C PUSH8 0xD56A35936850E49F PUSH1 0xC0 SHL PUSH2 0x164F JUMP JUMPDEST PUSH2 0xD50 PUSH8 0xA4FC1CAE6F692523 PUSH1 0xC0 SHL PUSH2 0x164F JUMP JUMPDEST PUSH2 0xD64 PUSH8 0x25F313266F7394BD PUSH1 0xC0 SHL PUSH2 0x164F JUMP JUMPDEST PUSH1 0x0 PUSH1 0x6 SLOAD GT PUSH2 0xDA9 JUMPI PUSH1 0x40 MLOAD PUSH32 0x8C379A000000000000000000000000000000000000000000000000000000000 DUP2 MSTORE PUSH1 0x4 ADD PUSH2 0xDA0 SWAP1 PUSH2 0x22BF JUMP JUMPDEST PUSH1 0x40 MLOAD DUP1 SWAP2 SUB SWAP1 REVERT JUMPDEST PUSH2 0xDBD PUSH8 0xB442CA1A51EBAC9 PUSH1 0xC0 SHL PUSH2 0x164F JUMP JUMPDEST PUSH2 0xDD1 PUSH8 0x23815B20DBF0D008 PUSH1 0xC0 SHL PUSH2 0x164F JUMP JUMPDEST PUSH2 0xDE5 PUSH8 0xFB22FE809C625D14 PUSH1 0xC0 SHL PUSH2 0x164F JUMP JUMPDEST PUSH1 0x3 PUSH1 0x1 PUSH1 0x3 DUP1 SLOAD SWAP1 POP PUSH2 0xDF9 SWAP2 SWAP1 PUSH2 0x22DF JUMP JUMPDEST DUP2 SLOAD DUP2 LT PUSH2 0xE0A JUMPI PUSH2 0xE09 PUSH2 0x2347 JUMP JUMPDEST JUMPDEST SWAP1 PUSH1 0x0 MSTORE PUSH1 0x20 PUSH1 0x0 KECCAK256 SWAP1 PUSH1 0x5 MUL ADD PUSH1 0x40 MLOAD DUP1 PUSH1 0xA0 ADD PUSH1 0x40 MSTORE SWAP1 DUP2 PUSH1 0x0 DUP3 ADD SLOAD DUP2 MSTORE PUSH1 0x20 ADD PUSH1 0x1 DUP3 ADD SLOAD DUP2 MSTORE PUSH1 0x20 ADD PUSH1 0x2 DUP3 ADD SLOAD DUP2 MSTORE PUSH1 0x20 ADD PUSH1 0x3 DUP3 ADD SLOAD DUP2 MSTORE PUSH1 0x20 ADD PUSH1 0x4 DUP3 ADD DUP1 SLOAD PUSH2 0xE5B SWAP1 PUSH2 0x1D84 JUMP JUMPDEST DUP1 PUSH1 0x1F ADD PUSH1 0x20 DUP1 SWAP2 DIV MUL PUSH1 0x20 ADD PUSH1 0x40 MLOAD SWAP1 DUP2 ADD PUSH1 0x40 MSTORE DUP1 SWAP3 SWAP2 SWAP1 DUP2 DUP2 MSTORE PUSH1 0x20 ADD DUP3 DUP1 SLOAD PUSH2 0xE87 SWAP1 PUSH2 0x1D84 JUMP JUMPDEST DUP1 ISZERO PUSH2 0xED4 JUMPI DUP1 PUSH1 0x1F LT PUSH2 0xEA9 JUMPI PUSH2 0x100 DUP1 DUP4 SLOAD DIV MUL DUP4 MSTORE SWAP2 PUSH1 0x20 ADD SWAP2 PUSH2 0xED4 JUMP JUMPDEST DUP3 ADD SWAP2 SWAP1 PUSH1 0x0 MSTORE PUSH1 0x20 PUSH1 0x0 KECCAK256 SWAP1 JUMPDEST DUP2 SLOAD DUP2 MSTORE SWAP1 PUSH1 0x1 ADD SWAP1 PUSH1 0x20 ADD DUP1 DUP4 GT PUSH2 0xEB7 JUMPI DUP3 SWAP1 SUB PUSH1 0x1F AND DUP3 ADD SWAP2 JUMPDEST POP POP POP POP POP DUP2 MSTORE POP POP SWAP1 POP SWAP1 JUMP JUMPDEST PUSH1 0x0 DUP1 SLOAD SWAP1 PUSH2 0x100 EXP SWAP1 DIV PUSH20 0xFFFFFFFFFFFFFFFFFFFFFFFFFFFFFFFFFFFFFFFF AND DUP2 JUMP JUMPDEST PUSH1 0x6 SLOAD DUP2 JUMP JUMPDEST PUSH1 0x2 DUP1 SLOAD PUSH2 0xF19 SWAP1 PUSH2 0x1D84 JUMP JUMPDEST DUP1 PUSH1 0x1F ADD PUSH1 0x20 DUP1 SWAP2 DIV MUL PUSH1 0x20 ADD PUSH1 0x40 MLOAD SWAP1 DUP2 ADD PUSH1 0x40 MSTORE DUP1 SWAP3 SWAP2 SWAP1 DUP2 DUP2 MSTORE PUSH1 0x20 ADD DUP3 DUP1 SLOAD PUSH2 0xF45 SWAP1 PUSH2 0x1D84 JUMP JUMPDEST DUP1 ISZERO PUSH2 0xF92 JUMPI DUP1 PUSH1 0x1F LT PUSH2 0xF67 JUMPI PUSH2 0x100 DUP1 DUP4 SLOAD DIV MUL DUP4 MSTORE SWAP2 PUSH1 0x20 ADD SWAP2 PUSH2 0xF92 JUMP JUMPDEST DUP3 ADD SWAP2 SWAP1 PUSH1 0x0 MSTORE PUSH1 0x20 PUSH1 0x0 KECCAK256 SWAP1 JUMPDEST DUP2 SLOAD DUP2 MSTORE SWAP1 PUSH1 0x1 ADD SWAP1 PUSH1 0x20 ADD DUP1 DUP4 GT PUSH2 0xF75 JUMPI DUP3 SWAP1 SUB PUSH1 0x1F AND DUP3 ADD SWAP2 JUMPDEST POP POP POP POP POP DUP2 JUMP JUMPDEST PUSH1 0x4 PUSH1 0x20 MSTORE DUP1 PUSH1 0x0 MSTORE PUSH1 0x40 PUSH1 0x0 KECCAK256 PUSH1 0x0 SWAP2 POP SWAP1 POP DUP1 PUSH1 0x0 ADD SLOAD SWAP1 DUP1 PUSH1 0x1 ADD SLOAD SWAP1 DUP1 PUSH1 0x2 ADD SLOAD SWAP1 DUP1 PUSH1 0x3 ADD SLOAD SWAP1 DUP1 PUSH1 0x4 ADD DUP1 SLOAD PUSH2 0xFD5 SWAP1 PUSH2 0x1D84 JUMP JUMPDEST DUP1 PUSH1 0x1F ADD PUSH1 0x20 DUP1 SWAP2 DIV MUL PUSH1 0x20 ADD PUSH1 0x40 MLOAD SWAP1 DUP2 ADD PUSH1 0x40 MSTORE DUP1 SWAP3 SWAP2 SWAP1 DUP2 DUP2 MSTORE PUSH1 0x20 ADD DUP3 DUP1 SLOAD PUSH2 0x1001 SWAP1 PUSH2 0x1D84 JUMP JUMPDEST DUP1 ISZERO PUSH2 0x104E JUMPI DUP1 PUSH1 0x1F LT PUSH2 0x1023 JUMPI PUSH2 0x100 DUP1 DUP4 SLOAD DIV MUL DUP4 MSTORE SWAP2 PUSH1 0x20 ADD SWAP2 PUSH2 0x104E JUMP JUMPDEST DUP3 ADD SWAP2 SWAP1 PUSH1 0x0 MSTORE PUSH1 0x20 PUSH1 0x0 KECCAK256 SWAP1 JUMPDEST DUP2 SLOAD DUP2 MSTORE SWAP1 PUSH1 0x1 ADD SWAP1 PUSH1 0x20 ADD DUP1 DUP4 GT PUSH2 0x1031 JUMPI DUP3 SWAP1 SUB PUSH1 0x1F AND DUP3 ADD SWAP2 JUMPDEST POP POP POP POP POP SWAP1 POP DUP6 JUMP JUMPDEST PUSH1 0x0 DUP1 PUSH1 0x60 DUP1 PUSH2 0x1072 PUSH8 0xD510DA5FD6C16E46 PUSH1 0xC0 SHL PUSH2 0x164F JUMP JUMPDEST PUSH2 0x1086 PUSH8 0x18EA1BF81733A968 PUSH1 0xC0 SHL PUSH2 0x164F JUMP JUMPDEST PUSH2 0x109A PUSH8 0xBA4D94047A495329 PUSH1 0xC0 SHL PUSH2 0x164F JUMP JUMPDEST PUSH1 0x6 SLOAD PUSH1 0x5 SLOAD PUSH1 0x1 PUSH1 0x2 DUP2 DUP1 SLOAD PUSH2 0x10B0 SWAP1 PUSH2 0x1D84 JUMP JUMPDEST DUP1 PUSH1 0x1F ADD PUSH1 0x20 DUP1 SWAP2 DIV MUL PUSH1 0x20 ADD PUSH1 0x40 MLOAD SWAP1 DUP2 ADD PUSH1 0x40 MSTORE DUP1 SWAP3 SWAP2 SWAP1 DUP2 DUP2 MSTORE PUSH1 0x20 ADD DUP3 DUP1 SLOAD PUSH2 0x10DC SWAP1 PUSH2 0x1D84 JUMP JUMPDEST DUP1 ISZERO PUSH2 0x1129 JUMPI DUP1 PUSH1 0x1F LT PUSH2 0x10FE JUMPI PUSH2 0x100 DUP1 DUP4 SLOAD DIV MUL DUP4 MSTORE SWAP2 PUSH1 0x20 ADD SWAP2 PUSH2 0x1129 JUMP JUMPDEST DUP3 ADD SWAP2 SWAP1 PUSH1 0x0 MSTORE PUSH1 0x20 PUSH1 0x0 KECCAK256 SWAP1 JUMPDEST DUP2 SLOAD DUP2 MSTORE SWAP1 PUSH1 0x1 ADD SWAP1 PUSH1 0x20 ADD DUP1 DUP4 GT PUSH2 0x110C JUMPI DUP3 SWAP1 SUB PUSH1 0x1F AND DUP3 ADD SWAP2 JUMPDEST POP POP POP POP POP SWAP2 POP DUP1 DUP1 SLOAD PUSH2 0x113C SWAP1 PUSH2 0x1D84 JUMP JUMPDEST DUP1 PUSH1 0x1F ADD PUSH1 0x20 DUP1 SWAP2 DIV MUL PUSH1 0x20 ADD PUSH1 0x40 MLOAD SWAP1 DUP2 ADD PUSH1 0x40 MSTORE DUP1 SWAP3 SWAP2 SWAP1 DUP2 DUP2 MSTORE PUSH1 0x20 ADD DUP3 DUP1 SLOAD PUSH2 0x1168 SWAP1 PUSH2 0x1D84 JUMP JUMPDEST DUP1 ISZERO PUSH2 0x11B5 JUMPI DUP1 PUSH1 0x1F LT PUSH2 0x118A JUMPI PUSH2 0x100 DUP1 DUP4 SLOAD DIV MUL DUP4 MSTORE SWAP2 PUSH1 0x20 ADD SWAP2 PUSH2 0x11B5 JUMP JUMPDEST DUP3 ADD SWAP2 SWAP1 PUSH1 0x0 MSTORE PUSH1 0x20 PUSH1 0x0 KECCAK256 SWAP1 JUMPDEST DUP2 SLOAD DUP2 MSTORE SWAP1 PUSH1 0x1 ADD SWAP1 PUSH1 0x20 ADD DUP1 DUP4 GT PUSH2 0x1198 JUMPI DUP3 SWAP1 SUB PUSH1 0x1F AND DUP3 ADD SWAP2 JUMPDEST POP POP POP POP POP SWAP1 POP SWAP4 POP SWAP4 POP SWAP4 POP SWAP4 POP SWAP1 SWAP2 SWAP3 SWAP4 JUMP JUMPDEST PUSH1 0x1 DUP1 SLOAD PUSH2 0x11D7 SWAP1 PUSH2 0x1D84 JUMP JUMPDEST DUP1 PUSH1 0x1F ADD PUSH1 0x20 DUP1 SWAP2 DIV MUL PUSH1 0x20 ADD PUSH1 0x40 MLOAD SWAP1 DUP2 ADD PUSH1 0x40 MSTORE DUP1 SWAP3 SWAP2 SWAP1 DUP2 DUP2 MSTORE PUSH1 0x20 ADD DUP3 DUP1 SLOAD PUSH2 0x1203 SWAP1 PUSH2 0x1D84 JUMP JUMPDEST DUP1 ISZERO PUSH2 0x1250 JUMPI DUP1 PUSH1 0x1F LT PUSH2 0x1225 JUMPI PUSH2 0x100 DUP1 DUP4 SLOAD DIV MUL DUP4 MSTORE SWAP2 PUSH1 0x20 ADD SWAP2 PUSH2 0x1250 JUMP JUMPDEST DUP3 ADD SWAP2 SWAP1 PUSH1 0x0 MSTORE PUSH1 0x20 PUSH1 0x0 KECCAK256 SWAP1 JUMPDEST DUP2 SLOAD DUP2 MSTORE SWAP1 PUSH1 0x1 ADD SWAP1 PUSH1 0x20 ADD DUP1 DUP4 GT PUSH2 0x1233 JUMPI DUP3 SWAP1 SUB PUSH1 0x1F AND DUP3 ADD SWAP2 JUMPDEST POP POP POP POP POP DUP2 JUMP JUMPDEST PUSH1 0x3 DUP2 DUP2 SLOAD DUP2 LT PUSH2 0x1268 JUMPI PUSH1 0x0 DUP1 REVERT JUMPDEST SWAP1 PUSH1 0x0 MSTORE PUSH1 0x20 PUSH1 0x0 KECCAK256 SWAP1 PUSH1 0x5 MUL ADD PUSH1 0x0 SWAP2 POP SWAP1 POP DUP1 PUSH1 0x0 ADD SLOAD SWAP1 DUP1 PUSH1 0x1 ADD SLOAD SWAP1 DUP1 PUSH1 0x2 ADD SLOAD SWAP1 DUP1 PUSH1 0x3 ADD SLOAD SWAP1 DUP1 PUSH1 0x4 ADD DUP1 SLOAD PUSH2 0x12A3 SWAP1 PUSH2 0x1D84 JUMP JUMPDEST DUP1 PUSH1 0x1F ADD PUSH1 0x20 DUP1 SWAP2 DIV MUL PUSH1 0x20 ADD PUSH1 0x40 MLOAD SWAP1 DUP2 ADD PUSH1 0x40 MSTORE DUP1 SWAP3 SWAP2 SWAP1 DUP2 DUP2 MSTORE PUSH1 0x20 ADD DUP3 DUP1 SLOAD PUSH2 0x12CF SWAP1 PUSH2 0x1D84 JUMP JUMPDEST DUP1 ISZERO PUSH2 0x131C JUMPI DUP1 PUSH1 0x1F LT PUSH2 0x12F1 JUMPI PUSH2 0x100 DUP1 DUP4 SLOAD DIV MUL DUP4 MSTORE SWAP2 PUSH1 0x20 ADD SWAP2 PUSH2 0x131C JUMP JUMPDEST DUP3 ADD SWAP2 SWAP1 PUSH1 0x0 MSTORE PUSH1 0x20 PUSH1 0x0 KECCAK256 SWAP1 JUMPDEST DUP2 SLOAD DUP2 MSTORE SWAP1 PUSH1 0x1 ADD SWAP1 PUSH1 0x20 ADD DUP1 DUP4 GT PUSH2 0x12FF JUMPI DUP3 SWAP1 SUB PUSH1 0x1F AND DUP3 ADD SWAP2 JUMPDEST POP POP POP POP POP SWAP1 POP DUP6 JUMP JUMPDEST PUSH2 0x133A PUSH8 0x9F2DEB490F2E426C PUSH1 0xC0 SHL PUSH2 0x164F JUMP JUMPDEST PUSH2 0x134E PUSH8 0xFDFFB5926D3DB14A PUSH1 0xC0 SHL PUSH2 0x164F JUMP JUMPDEST PUSH2 0x1362 PUSH8 0x6A39F6CCB82BB104 PUSH1 0xC0 SHL PUSH2 0x164F JUMP JUMPDEST PUSH2 0x1376 PUSH8 0x704374F59C64D8C5 PUSH1 0xC0 SHL PUSH2 0x164F JUMP JUMPDEST PUSH2 0x138A PUSH8 0x531E2F51DAA8D17D PUSH1 0xC0 SHL PUSH2 0x164F JUMP JUMPDEST PUSH1 0x0 DUP1 SLOAD SWAP1 PUSH2 0x100 EXP SWAP1 DIV PUSH20 0xFFFFFFFFFFFFFFFFFFFFFFFFFFFFFFFFFFFFFFFF AND PUSH20 0xFFFFFFFFFFFFFFFFFFFFFFFFFFFFFFFFFFFFFFFF AND CALLER PUSH20 0xFFFFFFFFFFFFFFFFFFFFFFFFFFFFFFFFFFFFFFFF AND EQ PUSH2 0x1418 JUMPI PUSH1 0x40 MLOAD PUSH32 0x8C379A000000000000000000000000000000000000000000000000000000000 DUP2 MSTORE PUSH1 0x4 ADD PUSH2 0x140F SWAP1 PUSH2 0x1CA3 JUMP JUMPDEST PUSH1 0x40 MLOAD DUP1 SWAP2 SUB SWAP1 REVERT JUMPDEST PUSH2 0x142C PUSH8 0xCC62FB2EA113CF3E PUSH1 0xC0 SHL PUSH2 0x164F JUMP JUMPDEST PUSH2 0x1440 PUSH8 0xC0E3A1588AE00DB7 PUSH1 0xC0 SHL PUSH2 0x164F JUMP JUMPDEST PUSH2 0x1454 PUSH8 0x801EE30C980C7644 PUSH1 0xC0 SHL PUSH2 0x164F JUMP JUMPDEST PUSH2 0x1468 PUSH8 0xDD46A07E51294858 PUSH1 0xC0 SHL PUSH2 0x164F JUMP JUMPDEST PUSH2 0x147C PUSH8 0x56569801404FD95A PUSH1 0xC0 SHL PUSH2 0x164F JUMP JUMPDEST PUSH2 0x1490 PUSH8 0xD0954CCC9C991ADE PUSH1 0xC0 SHL PUSH2 0x164F JUMP JUMPDEST PUSH2 0x14A4 PUSH8 0x5BC167E5EAA58880 PUSH1 0xC0 SHL PUSH2 0x164F JUMP JUMPDEST PUSH1 0x0 PUSH20 0xFFFFFFFFFFFFFFFFFFFFFFFFFFFFFFFFFFFFFFFF AND DUP2 PUSH20 0xFFFFFFFFFFFFFFFFFFFFFFFFFFFFFFFFFFFFFFFF AND SUB PUSH2 0x1513 JUMPI PUSH1 0x40 MLOAD PUSH32 0x8C379A000000000000000000000000000000000000000000000000000000000 DUP2 MSTORE PUSH1 0x4 ADD PUSH2 0x150A SWAP1 PUSH2 0x23C2 JUMP JUMPDEST PUSH1 0x40 MLOAD DUP1 SWAP2 SUB SWAP1 REVERT JUMPDEST PUSH2 0x1527 PUSH8 0xF24C5146E489463E PUSH1 0xC0 SHL PUSH2 0x164F JUMP JUMPDEST PUSH2 0x153B PUSH8 0xE025869E9578B7A1 PUSH1 0xC0 SHL PUSH2 0x164F JUMP JUMPDEST PUSH2 0x154F PUSH8 0x2B2652DA67FD02E3 PUSH1 0xC0 SHL PUSH2 0x164F JUMP JUMPDEST PUSH1 0x0 DUP1 PUSH1 0x0 SWAP1 SLOAD SWAP1 PUSH2 0x100 EXP SWAP1 DIV PUSH20 0xFFFFFFFFFFFFFFFFFFFFFFFFFFFFFFFFFFFFFFFF AND SWAP1 POP PUSH2 0x1589 PUSH8 0xCB8BFA684B6A554B PUSH1 0xC0 SHL PUSH2 0x164F JUMP JUMPDEST DUP2 PUSH1 0x0 DUP1 PUSH2 0x100 EXP DUP2 SLOAD DUP2 PUSH20 0xFFFFFFFFFFFFFFFFFFFFFFFFFFFFFFFFFFFFFFFF MUL NOT AND SWAP1 DUP4 PUSH20 0xFFFFFFFFFFFFFFFFFFFFFFFFFFFFFFFFFFFFFFFF AND MUL OR SWAP1 SSTORE POP PUSH2 0x15DD PUSH8 0x5CAFFA8F6CA08580 PUSH1 0xC0 SHL PUSH2 0x164F JUMP JUMPDEST PUSH2 0x15F1 PUSH8 0xF885CCE220BDC92C PUSH1 0xC0 SHL PUSH2 0x164F JUMP JUMPDEST DUP2 PUSH20 0xFFFFFFFFFFFFFFFFFFFFFFFFFFFFFFFFFFFFFFFF AND DUP2 PUSH20 0xFFFFFFFFFFFFFFFFFFFFFFFFFFFFFFFFFFFFFFFF AND PUSH32 0x8BE0079C531659141344CD1FD0A4F28419497F9722A3DAAFE3B4186F6B6457E0 PUSH1 0x40 MLOAD PUSH1 0x40 MLOAD DUP1 SWAP2 SUB SWAP1 LOG3 POP POP JUMP JUMPDEST POP JUMP JUMPDEST PUSH1 0x0 SWAP2 SWAP1 POP JUMP JUMPDEST PUSH1 0x0 PUSH1 0x1 SWAP1 POP SWAP2 SWAP1 POP JUMP JUMPDEST PUSH1 0x40 MLOAD DUP1 PUSH1 0xA0 ADD PUSH1 0x40 MSTORE DUP1 PUSH1 0x0 DUP2 MSTORE PUSH1 0x20 ADD PUSH1 0x0 DUP1 NOT AND DUP2 MSTORE PUSH1 0x20 ADD PUSH1 0x0 DUP1 NOT AND DUP2 MSTORE PUSH1 0x20 ADD PUSH1 0x0 DUP2 MSTORE PUSH1 0x20 ADD PUSH1 0x60 DUP2 MSTORE POP SWAP1 JUMP JUMPDEST PUSH1 0x0 DUP1 REVERT JUMPDEST PUSH1 0x0 DUP2 SWAP1 POP SWAP2 SWAP1 POP JUMP JUMPDEST PUSH2 0x16B1 DUP2 PUSH2 0x169E JUMP JUMPDEST DUP2 EQ PUSH2 0x16BC JUMPI PUSH1 0x0 DUP1 REVERT JUMPDEST POP JUMP JUMPDEST PUSH1 0x0 DUP2 CALLDATALOAD SWAP1 POP PUSH2 0x16CE DUP2 PUSH2 0x16A8 JUMP JUMPDEST SWAP3 SWAP2 POP POP JUMP JUMPDEST PUSH1 0x0 DUP2 SWAP1 POP SWAP2 SWAP1 POP JUMP JUMPDEST PUSH2 0x16E7 DUP2 PUSH2 0x16D4 JUMP JUMPDEST DUP2 EQ PUSH2 0x16F2 JUMPI PUSH1 0x0 DUP1 REVERT JUMPDEST POP JUMP JUMPDEST PUSH1 0x0 DUP2 CALLDATALOAD SWAP1 POP PUSH2 0x1704 DUP2 PUSH2 0x16DE JUMP JUMPDEST SWAP3 SWAP2 POP POP JUMP JUMPDEST PUSH1 0x0 DUP1 PUSH1 0x0 PUSH1 0x60 DUP5 DUP7 SUB SLT ISZERO PUSH2 0x1723 JUMPI PUSH2 0x1722 PUSH2 0x1699 JUMP JUMPDEST JUMPDEST PUSH1 0x0 PUSH2 0x1731 DUP7 DUP3 DUP8 ADD PUSH2 0x16BF JUMP JUMPDEST SWAP4 POP POP PUSH1 0x20 PUSH2 0x1742 DUP7 DUP3 DUP8 ADD PUSH2 0x16F5 JUMP JUMPDEST SWAP3 POP POP PUSH1 0x40 PUSH2 0x1753 DUP7 DUP3 DUP8 ADD PUSH2 0x16F5 JUMP JUMPDEST SWAP2 POP POP SWAP3 POP SWAP3 POP SWAP3 JUMP JUMPDEST PUSH2 0x1766 DUP2 PUSH2 0x169E JUMP JUMPDEST DUP3 MSTORE POP POP JUMP JUMPDEST PUSH1 0x0 PUSH1 0x20 DUP3 ADD SWAP1 POP PUSH2 0x1781 PUSH1 0x0 DUP4 ADD DUP5 PUSH2 0x175D JUMP JUMPDEST SWAP3 SWAP2 POP POP JUMP JUMPDEST PUSH1 0x0 PUSH1 0x20 DUP3 DUP5 SUB SLT ISZERO PUSH2 0x179D JUMPI PUSH2 0x179C PUSH2 0x1699 JUMP JUMPDEST JUMPDEST PUSH1 0x0 PUSH2 0x17AB DUP5 DUP3 DUP6 ADD PUSH2 0x16BF JUMP JUMPDEST SWAP2 POP POP SWAP3 SWAP2 POP POP JUMP JUMPDEST PUSH2 0x17BD DUP2 PUSH2 0x169E JUMP JUMPDEST DUP3 MSTORE POP POP JUMP JUMPDEST PUSH2 0x17CC DUP2 PUSH2 0x16D4 JUMP JUMPDEST DUP3 MSTORE POP POP JUMP JUMPDEST PUSH1 0x0 DUP2 MLOAD SWAP1 POP SWAP2 SWAP1 POP JUMP JUMPDEST PUSH1 0x0 DUP3 DUP3 MSTORE PUSH1 0x20 DUP3 ADD SWAP1 POP SWAP3 SWAP2 POP POP JUMP JUMPDEST PUSH1 0x0 JUMPDEST DUP4 DUP2 LT ISZERO PUSH2 0x180C JUMPI DUP1 DUP3 ADD MLOAD DUP2 DUP5 ADD MSTORE PUSH1 0x20 DUP2 ADD SWAP1 POP PUSH2 0x17F1 JUMP JUMPDEST PUSH1 0x0 DUP5 DUP5 ADD MSTORE POP POP POP POP JUMP JUMPDEST PUSH1 0x0 PUSH1 0x1F NOT PUSH1 0x1F DUP4 ADD AND SWAP1 POP SWAP2 SWAP1 POP JUMP JUMPDEST PUSH1 0x0 PUSH2 0x1834 DUP3 PUSH2 0x17D2 JUMP JUMPDEST PUSH2 0x183E DUP2 DUP6 PUSH2 0x17DD JUMP JUMPDEST SWAP4 POP PUSH2 0x184E DUP2 DUP6 PUSH1 0x20 DUP7 ADD PUSH2 0x17EE JUMP JUMPDEST PUSH2 0x1857 DUP2 PUSH2 0x1818 JUMP JUMPDEST DUP5 ADD SWAP2 POP POP SWAP3 SWAP2 POP POP JUMP JUMPDEST PUSH1 0x0 PUSH1 0xA0 DUP4 ADD PUSH1 0x0 DUP4 ADD MLOAD PUSH2 0x187A PUSH1 0x0 DUP7 ADD DUP3 PUSH2 0x17B4 JUMP JUMPDEST POP PUSH1 0x20 DUP4 ADD MLOAD PUSH2 0x188D PUSH1 0x20 DUP7 ADD DUP3 PUSH2 0x17C3 JUMP JUMPDEST POP PUSH1 0x40 DUP4 ADD MLOAD PUSH2 0x18A0 PUSH1 0x40 DUP7 ADD DUP3 PUSH2 0x17C3 JUMP JUMPDEST POP PUSH1 0x60 DUP4 ADD MLOAD PUSH2 0x18B3 PUSH1 0x60 DUP7 ADD DUP3 PUSH2 0x17B4 JUMP JUMPDEST POP PUSH1 0x80 DUP4 ADD MLOAD DUP5 DUP3 SUB PUSH1 0x80 DUP7 ADD MSTORE PUSH2 0x18CB DUP3 DUP3 PUSH2 0x1829 JUMP JUMPDEST SWAP2 POP POP DUP1 SWAP2 POP POP SWAP3 SWAP2 POP POP JUMP JUMPDEST PUSH1 0x0 PUSH1 0x20 DUP3 ADD SWAP1 POP DUP2 DUP2 SUB PUSH1 0x0 DUP4 ADD MSTORE PUSH2 0x18F2 DUP2 DUP5 PUSH2 0x1862 JUMP JUMPDEST SWAP1 POP SWAP3 SWAP2 POP POP JUMP JUMPDEST PUSH1 0x0 DUP2 MLOAD SWAP1 POP SWAP2 SWAP1 POP JUMP JUMPDEST PUSH1 0x0 DUP3 DUP3 MSTORE PUSH1 0x20 DUP3 ADD SWAP1 POP SWAP3 SWAP2 POP POP JUMP JUMPDEST PUSH1 0x0 DUP2 SWAP1 POP PUSH1 0x20 DUP3 ADD SWAP1 POP SWAP2 SWAP1 POP JUMP JUMPDEST PUSH1 0x0 PUSH1 0xA0 DUP4 ADD PUSH1 0x0 DUP4 ADD MLOAD PUSH2 0x193E PUSH1 0x0 DUP7 ADD DUP3 PUSH2 0x17B4 JUMP JUMPDEST POP PUSH1 0x20 DUP4 ADD MLOAD PUSH2 0x1951 PUSH1 0x20 DUP7 ADD DUP3 PUSH2 0x17C3 JUMP JUMPDEST POP PUSH1 0x40 DUP4 ADD MLOAD PUSH2 0x1964 PUSH1 0x40 DUP7 ADD DUP3 PUSH2 0x17C3 JUMP JUMPDEST POP PUSH1 0x60 DUP4 ADD MLOAD PUSH2 0x1977 PUSH1 0x60 DUP7 ADD DUP3 PUSH2 0x17B4 JUMP JUMPDEST POP PUSH1 0x80 DUP4 ADD MLOAD DUP5 DUP3 SUB PUSH1 0x80 DUP7 ADD MSTORE PUSH2 0x198F DUP3 DUP3 PUSH2 0x1829 JUMP JUMPDEST SWAP2 POP POP DUP1 SWAP2 POP POP SWAP3 SWAP2 POP POP JUMP JUMPDEST PUSH1 0x0 PUSH2 0x19A8 DUP4 DUP4 PUSH2 0x1926 JUMP JUMPDEST SWAP1 POP SWAP3 SWAP2 POP POP JUMP JUMPDEST PUSH1 0x0 PUSH1 0x20 DUP3 ADD SWAP1 POP SWAP2 SWAP1 POP JUMP JUMPDEST PUSH1 0x0 PUSH2 0x19C8 DUP3 PUSH2 0x18FA JUMP JUMPDEST PUSH2 0x19D2 DUP2 DUP6 PUSH2 0x1905 JUMP JUMPDEST SWAP4 POP DUP4 PUSH1 0x20 DUP3 MUL DUP6 ADD PUSH2 0x19E4 DUP6 PUSH2 0x1916 JUMP JUMPDEST DUP1 PUSH1 0x0 JUMPDEST DUP6 DUP2 LT ISZERO PUSH2 0x1A20 JUMPI DUP5 DUP5 SUB DUP10 MSTORE DUP2 MLOAD PUSH2 0x1A01 DUP6 DUP3 PUSH2 0x199C JUMP JUMPDEST SWAP5 POP PUSH2 0x1A0C DUP4 PUSH2 0x19B0 JUMP JUMPDEST SWAP3 POP PUSH1 0x20 DUP11 ADD SWAP10 POP POP PUSH1 0x1 DUP2 ADD SWAP1 POP PUSH2 0x19E8 JUMP JUMPDEST POP DUP3 SWAP8 POP DUP8 SWAP6 POP POP POP POP POP POP SWAP3 SWAP2 POP POP JUMP JUMPDEST PUSH1 0x0 PUSH1 0x20 DUP3 ADD SWAP1 POP DUP2 DUP2 SUB PUSH1 0x0 DUP4 ADD MSTORE PUSH2 0x1A4C DUP2 DUP5 PUSH2 0x19BD JUMP JUMPDEST SWAP1 POP SWAP3 SWAP2 POP POP JUMP JUMPDEST PUSH1 0x0 PUSH20 0xFFFFFFFFFFFFFFFFFFFFFFFFFFFFFFFFFFFFFFFF DUP3 AND SWAP1 POP SWAP2 SWAP1 POP JUMP JUMPDEST PUSH1 0x0 PUSH2 0x1A7F DUP3 PUSH2 0x1A54 JUMP JUMPDEST SWAP1 POP SWAP2 SWAP1 POP JUMP JUMPDEST PUSH2 0x1A8F DUP2 PUSH2 0x1A74 JUMP JUMPDEST DUP3 MSTORE POP POP JUMP JUMPDEST PUSH1 0x0 PUSH1 0x20 DUP3 ADD SWAP1 POP PUSH2 0x1AAA PUSH1 0x0 DUP4 ADD DUP5 PUSH2 0x1A86 JUMP JUMPDEST SWAP3 SWAP2 POP POP JUMP JUMPDEST PUSH1 0x0 DUP3 DUP3 MSTORE PUSH1 0x20 DUP3 ADD SWAP1 POP SWAP3 SWAP2 POP POP JUMP JUMPDEST PUSH1 0x0 PUSH2 0x1ACC DUP3 PUSH2 0x17D2 JUMP JUMPDEST PUSH2 0x1AD6 DUP2 DUP6 PUSH2 0x1AB0 JUMP JUMPDEST SWAP4 POP PUSH2 0x1AE6 DUP2 DUP6 PUSH1 0x20 DUP7 ADD PUSH2 0x17EE JUMP JUMPDEST PUSH2 0x1AEF DUP2 PUSH2 0x1818 JUMP JUMPDEST DUP5 ADD SWAP2 POP POP SWAP3 SWAP2 POP POP JUMP JUMPDEST PUSH1 0x0 PUSH1 0x20 DUP3 ADD SWAP1 POP DUP2 DUP2 SUB PUSH1 0x0 DUP4 ADD MSTORE PUSH2 0x1B14 DUP2 DUP5 PUSH2 0x1AC1 JUMP JUMPDEST SWAP1 POP SWAP3 SWAP2 POP POP JUMP JUMPDEST PUSH2 0x1B25 DUP2 PUSH2 0x16D4 JUMP JUMPDEST DUP3 MSTORE POP POP JUMP JUMPDEST PUSH1 0x0 PUSH1 0xA0 DUP3 ADD SWAP1 POP PUSH2 0x1B40 PUSH1 0x0 DUP4 ADD DUP9 PUSH2 0x175D JUMP JUMPDEST PUSH2 0x1B4D PUSH1 0x20 DUP4 ADD DUP8 PUSH2 0x1B1C JUMP JUMPDEST PUSH2 0x1B5A PUSH1 0x40 DUP4 ADD DUP7 PUSH2 0x1B1C JUMP JUMPDEST PUSH2 0x1B67 PUSH1 0x60 DUP4 ADD DUP6 PUSH2 0x175D JUMP JUMPDEST DUP2 DUP2 SUB PUSH1 0x80 DUP4 ADD MSTORE PUSH2 0x1B79 DUP2 DUP5 PUSH2 0x1AC1 JUMP JUMPDEST SWAP1 POP SWAP7 SWAP6 POP POP POP POP POP POP JUMP JUMPDEST PUSH1 0x0 PUSH1 0x80 DUP3 ADD SWAP1 POP PUSH2 0x1B9A PUSH1 0x0 DUP4 ADD DUP8 PUSH2 0x175D JUMP JUMPDEST PUSH2 0x1BA7 PUSH1 0x20 DUP4 ADD DUP7 PUSH2 0x175D JUMP JUMPDEST DUP2 DUP2 SUB PUSH1 0x40 DUP4 ADD MSTORE PUSH2 0x1BB9 DUP2 DUP6 PUSH2 0x1AC1 JUMP JUMPDEST SWAP1 POP DUP2 DUP2 SUB PUSH1 0x60 DUP4 ADD MSTORE PUSH2 0x1BCD DUP2 DUP5 PUSH2 0x1AC1 JUMP JUMPDEST SWAP1 POP SWAP6 SWAP5 POP POP POP POP POP JUMP JUMPDEST PUSH2 0x1BE1 DUP2 PUSH2 0x1A74 JUMP JUMPDEST DUP2 EQ PUSH2 0x1BEC JUMPI PUSH1 0x0 DUP1 REVERT JUMPDEST POP JUMP JUMPDEST PUSH1 0x0 DUP2 CALLDATALOAD SWAP1 POP PUSH2 0x1BFE DUP2 PUSH2 0x1BD8 JUMP JUMPDEST SWAP3 SWAP2 POP POP JUMP JUMPDEST PUSH1 0x0 PUSH1 0x20 DUP3 DUP5 SUB SLT ISZERO PUSH2 0x1C1A JUMPI PUSH2 0x1C19 PUSH2 0x1699 JUMP JUMPDEST JUMPDEST PUSH1 0x0 PUSH2 0x1C28 DUP5 DUP3 DUP6 ADD PUSH2 0x1BEF JUMP JUMPDEST SWAP2 POP POP SWAP3 SWAP2 POP POP JUMP JUMPDEST PUSH32 0x536F6C6F20656C2070726F706965746172696F20707565646520656A65637574 PUSH1 0x0 DUP3 ADD MSTORE PUSH32 0x617220657374612066756E63696F6E0000000000000000000000000000000000 PUSH1 0x20 DUP3 ADD MSTORE POP JUMP JUMPDEST PUSH1 0x0 PUSH2 0x1C8D PUSH1 0x2F DUP4 PUSH2 0x1AB0 JUMP JUMPDEST SWAP2 POP PUSH2 0x1C98 DUP3 PUSH2 0x1C31 JUMP JUMPDEST PUSH1 0x40 DUP3 ADD SWAP1 POP SWAP2 SWAP1 POP JUMP JUMPDEST PUSH1 0x0 PUSH1 0x20 DUP3 ADD SWAP1 POP DUP2 DUP2 SUB PUSH1 0x0 DUP4 ADD MSTORE PUSH2 0x1CBC DUP2 PUSH2 0x1C80 JUMP JUMPDEST SWAP1 POP SWAP2 SWAP1 POP JUMP JUMPDEST PUSH32 0x456C20626C6F7175652079612066756520616E636C61646F206F20657320616E PUSH1 0x0 DUP3 ADD MSTORE PUSH32 0x746572696F720000000000000000000000000000000000000000000000000000 PUSH1 0x20 DUP3 ADD MSTORE POP JUMP JUMPDEST PUSH1 0x0 PUSH2 0x1D1F PUSH1 0x26 DUP4 PUSH2 0x1AB0 JUMP JUMPDEST SWAP2 POP PUSH2 0x1D2A DUP3 PUSH2 0x1CC3 JUMP JUMPDEST PUSH1 0x40 DUP3 ADD SWAP1 POP SWAP2 SWAP1 POP JUMP JUMPDEST PUSH1 0x0 PUSH1 0x20 DUP3 ADD SWAP1 POP DUP2 DUP2 SUB PUSH1 0x0 DUP4 ADD MSTORE PUSH2 0x1D4E DUP2 PUSH2 0x1D12 JUMP JUMPDEST SWAP1 POP SWAP2 SWAP1 POP JUMP JUMPDEST PUSH32 0x4E487B7100000000000000000000000000000000000000000000000000000000 PUSH1 0x0 MSTORE PUSH1 0x22 PUSH1 0x4 MSTORE PUSH1 0x24 PUSH1 0x0 REVERT JUMPDEST PUSH1 0x0 PUSH1 0x2 DUP3 DIV SWAP1 POP PUSH1 0x1 DUP3 AND DUP1 PUSH2 0x1D9C JUMPI PUSH1 0x7F DUP3 AND SWAP2 POP JUMPDEST PUSH1 0x20 DUP3 LT DUP2 SUB PUSH2 0x1DAF JUMPI PUSH2 0x1DAE PUSH2 0x1D55 JUMP JUMPDEST JUMPDEST POP SWAP2 SWAP1 POP JUMP JUMPDEST PUSH32 0x4E487B7100000000000000000000000000000000000000000000000000000000 PUSH1 0x0 MSTORE PUSH1 0x41 PUSH1 0x4 MSTORE PUSH1 0x24 PUSH1 0x0 REVERT JUMPDEST PUSH1 0x0 DUP2 SWAP1 POP DUP2 PUSH1 0x0 MSTORE PUSH1 0x20 PUSH1 0x0 KECCAK256 SWAP1 POP SWAP2 SWAP1 POP JUMP JUMPDEST PUSH1 0x0 PUSH1 0x20 PUSH1 0x1F DUP4 ADD DIV SWAP1 POP SWAP2 SWAP1 POP JUMP JUMPDEST PUSH1 0x0 DUP3 DUP3 SHL SWAP1 POP SWAP3 SWAP2 POP POP JUMP JUMPDEST PUSH1 0x0 PUSH1 0x8 DUP4 MUL PUSH2 0x1E46 PUSH32 0xFFFFFFFFFFFFFFFFFFFFFFFFFFFFFFFFFFFFFFFFFFFFFFFFFFFFFFFFFFFFFFFF DUP3 PUSH2 0x1E09 JUMP JUMPDEST PUSH2 0x1E50 DUP7 DUP4 PUSH2 0x1E09 JUMP JUMPDEST SWAP6 POP DUP1 NOT DUP5 AND SWAP4 POP DUP1 DUP7 AND DUP5 OR SWAP3 POP POP POP SWAP4 SWAP3 POP POP POP JUMP JUMPDEST PUSH1 0x0 DUP2 SWAP1 POP SWAP2 SWAP1 POP JUMP JUMPDEST PUSH1 0x0 PUSH2 0x1E8D PUSH2 0x1E88 PUSH2 0x1E83 DUP5 PUSH2 0x169E JUMP JUMPDEST PUSH2 0x1E68 JUMP JUMPDEST PUSH2 0x169E JUMP JUMPDEST SWAP1 POP SWAP2 SWAP1 POP JUMP JUMPDEST PUSH1 0x0 DUP2 SWAP1 POP SWAP2 SWAP1 POP JUMP JUMPDEST PUSH2 0x1EA7 DUP4 PUSH2 0x1E72 JUMP JUMPDEST PUSH2 0x1EBB PUSH2 0x1EB3 DUP3 PUSH2 0x1E94 JUMP JUMPDEST DUP5 DUP5 SLOAD PUSH2 0x1E16 JUMP JUMPDEST DUP3 SSTORE POP POP POP POP JUMP JUMPDEST PUSH1 0x0 SWAP1 JUMP JUMPDEST PUSH2 0x1ED0 PUSH2 0x1EC3 JUMP JUMPDEST PUSH2 0x1EDB DUP2 DUP5 DUP5 PUSH2 0x1E9E JUMP JUMPDEST POP POP POP JUMP JUMPDEST JUMPDEST DUP2 DUP2 LT ISZERO PUSH2 0x1EFF JUMPI PUSH2 0x1EF4 PUSH1 0x0 DUP3 PUSH2 0x1EC8 JUMP JUMPDEST PUSH1 0x1 DUP2 ADD SWAP1 POP PUSH2 0x1EE1 JUMP JUMPDEST POP POP JUMP JUMPDEST PUSH1 0x1F DUP3 GT ISZERO PUSH2 0x1F44 JUMPI PUSH2 0x1F15 DUP2 PUSH2 0x1DE4 JUMP JUMPDEST PUSH2 0x1F1E DUP5 PUSH2 0x1DF9 JUMP JUMPDEST DUP2 ADD PUSH1 0x20 DUP6 LT ISZERO PUSH2 0x1F2D JUMPI DUP2 SWAP1 POP JUMPDEST PUSH2 0x1F41 PUSH2 0x1F39 DUP6 PUSH2 0x1DF9 JUMP JUMPDEST DUP4 ADD DUP3 PUSH2 0x1EE0 JUMP JUMPDEST POP POP JUMPDEST POP POP POP JUMP JUMPDEST PUSH1 0x0 DUP3 DUP3 SHR SWAP1 POP SWAP3 SWAP2 POP POP JUMP JUMPDEST PUSH1 0x0 PUSH2 0x1F67 PUSH1 0x0 NOT DUP5 PUSH1 0x8 MUL PUSH2 0x1F49 JUMP JUMPDEST NOT DUP1 DUP4 AND SWAP2 POP POP SWAP3 SWAP2 POP POP JUMP JUMPDEST PUSH1 0x0 PUSH2 0x1F80 DUP4 DUP4 PUSH2 0x1F56 JUMP JUMPDEST SWAP2 POP DUP3 PUSH1 0x2 MUL DUP3 OR SWAP1 POP SWAP3 SWAP2 POP POP JUMP JUMPDEST PUSH2 0x1F99 DUP3 PUSH2 0x17D2 JUMP JUMPDEST PUSH8 0xFFFFFFFFFFFFFFFF DUP2 GT ISZERO PUSH2 0x1FB2 JUMPI PUSH2 0x1FB1 PUSH2 0x1DB5 JUMP JUMPDEST JUMPDEST PUSH2 0x1FBC DUP3 SLOAD PUSH2 0x1D84 JUMP JUMPDEST PUSH2 0x1FC7 DUP3 DUP3 DUP6 PUSH2 0x1F03 JUMP JUMPDEST PUSH1 0x0 PUSH1 0x20 SWAP1 POP PUSH1 0x1F DUP4 GT PUSH1 0x1 DUP2 EQ PUSH2 0x1FFA JUMPI PUSH1 0x0 DUP5 ISZERO PUSH2 0x1FE8 JUMPI DUP3 DUP8 ADD MLOAD SWAP1 POP JUMPDEST PUSH2 0x1FF2 DUP6 DUP3 PUSH2 0x1F74 JUMP JUMPDEST DUP7 SSTORE POP PUSH2 0x205A JUMP JUMPDEST PUSH1 0x1F NOT DUP5 AND PUSH2 0x2008 DUP7 PUSH2 0x1DE4 JUMP JUMPDEST PUSH1 0x0 JUMPDEST DUP3 DUP2 LT ISZERO PUSH2 0x2030 JUMPI DUP5 DUP10 ADD MLOAD DUP3 SSTORE PUSH1 0x1 DUP3 ADD SWAP2 POP PUSH1 0x20 DUP6 ADD SWAP5 POP PUSH1 0x20 DUP2 ADD SWAP1 POP PUSH2 0x200B JUMP JUMPDEST DUP7 DUP4 LT ISZERO PUSH2 0x204D JUMPI DUP5 DUP10 ADD MLOAD PUSH2 0x2049 PUSH1 0x1F DUP10 AND DUP3 PUSH2 0x1F56 JUMP JUMPDEST DUP4 SSTORE POP JUMPDEST PUSH1 0x1 PUSH1 0x2 DUP9 MUL ADD DUP9 SSTORE POP POP POP JUMPDEST POP POP POP POP POP POP JUMP JUMPDEST PUSH32 0x4E487B7100000000000000000000000000000000000000000000000000000000 PUSH1 0x0 MSTORE PUSH1 0x11 PUSH1 0x4 MSTORE PUSH1 0x24 PUSH1 0x0 REVERT JUMPDEST PUSH1 0x0 PUSH2 0x209C DUP3 PUSH2 0x169E JUMP JUMPDEST SWAP2 POP PUSH32 0xFFFFFFFFFFFFFFFFFFFFFFFFFFFFFFFFFFFFFFFFFFFFFFFFFFFFFFFFFFFFFFFF DUP3 SUB PUSH2 0x20CE JUMPI PUSH2 0x20CD PUSH2 0x2062 JUMP JUMPDEST JUMPDEST PUSH1 0x1 DUP3 ADD SWAP1 POP SWAP2 SWAP1 POP JUMP JUMPDEST PUSH1 0x0 DUP2 SLOAD PUSH2 0x20E6 DUP2 PUSH2 0x1D84 JUMP JUMPDEST PUSH2 0x20F0 DUP2 DUP7 PUSH2 0x1AB0 JUMP JUMPDEST SWAP5 POP PUSH1 0x1 DUP3 AND PUSH1 0x0 DUP2 EQ PUSH2 0x210B JUMPI PUSH1 0x1 DUP2 EQ PUSH2 0x2121 JUMPI PUSH2 0x2154 JUMP JUMPDEST PUSH1 0xFF NOT DUP4 AND DUP7 MSTORE DUP2 ISZERO ISZERO PUSH1 0x20 MUL DUP7 ADD SWAP4 POP PUSH2 0x2154 JUMP JUMPDEST PUSH2 0x212A DUP6 PUSH2 0x1DE4 JUMP JUMPDEST PUSH1 0x0 JUMPDEST DUP4 DUP2 LT ISZERO PUSH2 0x214C JUMPI DUP2 SLOAD DUP2 DUP10 ADD MSTORE PUSH1 0x1 DUP3 ADD SWAP2 POP PUSH1 0x20 DUP2 ADD SWAP1 POP PUSH2 0x212D JUMP JUMPDEST DUP1 DUP9 ADD SWAP6 POP POP POP JUMPDEST POP POP POP SWAP3 SWAP2 POP POP JUMP JUMPDEST PUSH1 0x0 PUSH1 0x60 DUP3 ADD SWAP1 POP PUSH2 0x2172 PUSH1 0x0 DUP4 ADD DUP7 PUSH2 0x1B1C JUMP JUMPDEST DUP2 DUP2 SUB PUSH1 0x20 DUP4 ADD MSTORE PUSH2 0x2184 DUP2 DUP6 PUSH2 0x20D9 JUMP JUMPDEST SWAP1 POP PUSH2 0x2193 PUSH1 0x40 DUP4 ADD DUP5 PUSH2 0x175D JUMP JUMPDEST SWAP5 SWAP4 POP POP POP POP JUMP JUMPDEST PUSH32 0x426C6F717565206E6F20656E636F6E747261646F000000000000000000000000 PUSH1 0x0 DUP3 ADD MSTORE POP JUMP JUMPDEST PUSH1 0x0 PUSH2 0x21D1 PUSH1 0x14 DUP4 PUSH2 0x1AB0 JUMP JUMPDEST SWAP2 POP PUSH2 0x21DC DUP3 PUSH2 0x219B JUMP JUMPDEST PUSH1 0x20 DUP3 ADD SWAP1 POP SWAP2 SWAP1 POP JUMP JUMPDEST PUSH1 0x0 PUSH1 0x20 DUP3 ADD SWAP1 POP DUP2 DUP2 SUB PUSH1 0x0 DUP4 ADD MSTORE PUSH2 0x2200 DUP2 PUSH2 0x21C4 JUMP JUMPDEST SWAP1 POP SWAP2 SWAP1 POP JUMP JUMPDEST PUSH32 0x436F756E74206465626520736572206D61796F72206120300000000000000000 PUSH1 0x0 DUP3 ADD MSTORE POP JUMP JUMPDEST PUSH1 0x0 PUSH2 0x223D PUSH1 0x18 DUP4 PUSH2 0x1AB0 JUMP JUMPDEST SWAP2 POP PUSH2 0x2248 DUP3 PUSH2 0x2207 JUMP JUMPDEST PUSH1 0x20 DUP3 ADD SWAP1 POP SWAP2 SWAP1 POP JUMP JUMPDEST PUSH1 0x0 PUSH1 0x20 DUP3 ADD SWAP1 POP DUP2 DUP2 SUB PUSH1 0x0 DUP4 ADD MSTORE PUSH2 0x226C DUP2 PUSH2 0x2230 JUMP JUMPDEST SWAP1 POP SWAP2 SWAP1 POP JUMP JUMPDEST PUSH32 0x4E6F2068617920626C6F7175657320616E636C61646F73000000000000000000 PUSH1 0x0 DUP3 ADD MSTORE POP JUMP JUMPDEST PUSH1 0x0 PUSH2 0x22A9 PUSH1 0x17 DUP4 PUSH2 0x1AB0 JUMP JUMPDEST SWAP2 POP PUSH2 0x22B4 DUP3 PUSH2 0x2273 JUMP JUMPDEST PUSH1 0x20 DUP3 ADD SWAP1 POP SWAP2 SWAP1 POP JUMP JUMPDEST PUSH1 0x0 PUSH1 0x20 DUP3 ADD SWAP1 POP DUP2 DUP2 SUB PUSH1 0x0 DUP4 ADD MSTORE PUSH2 0x22D8 DUP2 PUSH2 0x229C JUMP JUMPDEST SWAP1 POP SWAP2 SWAP1 POP JUMP JUMPDEST PUSH1 0x0 PUSH2 0x22EA DUP3 PUSH2 0x169E JUMP JUMPDEST SWAP2 POP PUSH2 0x22F5 DUP4 PUSH2 0x169E JUMP JUMPDEST SWAP3 POP DUP3 DUP3 SUB SWAP1 POP DUP2 DUP2 GT ISZERO PUSH2 0x230D JUMPI PUSH2 0x230C PUSH2 0x2062 JUMP JUMPDEST JUMPDEST SWAP3 SWAP2 POP POP JUMP JUMPDEST PUSH1 0x0 PUSH2 0x231E DUP3 PUSH2 0x169E JUMP JUMPDEST SWAP2 POP PUSH2 0x2329 DUP4 PUSH2 0x169E JUMP JUMPDEST SWAP3 POP DUP3 DUP3 ADD SWAP1 POP DUP1 DUP3 GT ISZERO PUSH2 0x2341 JUMPI PUSH2 0x2340 PUSH2 0x2062 JUMP JUMPDEST JUMPDEST SWAP3 SWAP2 POP POP JUMP JUMPDEST PUSH32 0x4E487B7100000000000000000000000000000000000000000000000000000000 PUSH1 0x0 MSTORE PUSH1 0x32 PUSH1 0x4 MSTORE PUSH1 0x24 PUSH1 0x0 REVERT JUMPDEST PUSH32 0x4E7565766120646972656363696F6E206E6F2070756564652073657220307830 PUSH1 0x0 DUP3 ADD MSTORE POP JUMP JUMPDEST PUSH1 0x0 PUSH2 0x23AC PUSH1 0x20 DUP4 PUSH2 0x1AB0 JUMP JUMPDEST SWAP2 POP PUSH2 0x23B7 DUP3 PUSH2 0x2376 JUMP JUMPDEST PUSH1 0x20 DUP3 ADD SWAP1 POP SWAP2 SWAP1 POP JUMP JUMPDEST PUSH1 0x0 PUSH1 0x20 DUP3 ADD SWAP1 POP DUP2 DUP2 SUB PUSH1 0x0 DUP4 ADD MSTORE PUSH2 0x23DB DUP2 PUSH2 0x239F JUMP JUMPDEST SWAP1 POP SWAP2 SWAP1 POP JUMP INVALID LOG2 PUSH5 0x6970667358 0x22 SLT KECCAK256 DUP10 PUSH29 0xE55324AF055528D460FAE006593C6FB4DCA0F96C8C0AC84BA4BF3A4F57 SWAP4 PUSH5 0x736F6C6343 STOP ADDMOD SHR STOP CALLER "},"methodIdentifiers":{"anchorBlock(uint256,bytes32,bytes32)":"3858f5e7","anchoredBlocks(uint256)":"f2ce940c","anchoredChainName()":"ab1e7425","blockByNumber(uint256)":"b7e45161","getAnchoredBlock(uint256)":"3fb00a37","getLastAnchoredBlock()":"65a1930d","getLastNBlocks(uint256)":"549a06c0","getStats()":"c59d4847","lastAnchoredBlock()":"38e36544","owner()":"8da5cb5b","thisChainName()":"d5460452","totalAnchors()":"9ffb4635","transferOwnership(address)":"f2fde38b"}}}}}