{
  "_format": "hh-sol-artifact-1",
  "contractName": "AnchorContract",
  "sourceName": "contracts/AnchorContract.sol",
  "abi": [
    {
      "inputs": [
        {
          "internalType": "string",
          "name": "_thisChainName",
          "type": "string"
        },
        {
          "internalType": "string",
          "name": "_anchoredChainName",
          "type": "string"
        }
      ],
      "stateMutability": "nonpayable",
      "type": "constructor"
    },
    {
      "anonymous": false,
      "inputs": [
        {
          "indexed": true,
          "internalType": "uint256",
          "name": "blockNumber",
          "type": "uint256"
        },
        {
          "indexed": true,
          "internalType": "bytes32",
          "name": "blockHash",
          "type": "bytes32"
        },
        {
          "indexed": false,
          "internalType": "bytes32",
          "name": "stateRoot",
          "type": "bytes32"
        },
        {
          "indexed": false,
          "internalType": "string",
          "name": "chainName",
          "type": "string"
        },
        {
          "indexed": false,
          "internalType": "uint256",
          "name": "timestamp",
          "type": "uint256"
        }
      ],
      "name": "BlockAnchored",
      "type": "event"
    },
    {
      "anonymous": false,
      "inputs": [
        {
          "indexed": true,
          "internalType": "address",
          "name": "previousOwner",
          "type": "address"
        },
        {
          "indexed": true,
          "internalType": "address",
          "name": "newOwner",
          "type": "address"
        }
      ],
      "name": "OwnershipTransferred",
      "type": "event"
    },
    {
      "inputs": [
        {
          "internalType": "uint256",
          "name": "_blockNumber",
          "type": "uint256"
        },
        {
          "internalType": "bytes32",
          "name": "_blockHash",
          "type": "bytes32"
        },
        {
          "internalType": "bytes32",
          "name": "_stateRoot",
          "type": "bytes32"
        }
      ],
      "name": "anchorBlock",
      "outputs": [],
      "stateMutability": "nonpayable",
      "type": "function"
    },
    {
      "inputs": [
        {
          "internalType": "uint256",
          "name": "",
          "type": "uint256"
        }
      ],
      "name": "anchoredBlocks",
      "outputs": [
        {
          "internalType": "uint256",
          "name": "blockNumber",
          "type": "uint256"
        },
        {
          "internalType": "bytes32",
          "name": "blockHash",
          "type": "bytes32"
        },
        {
          "internalType": "bytes32",
          "name": "stateRoot",
          "type": "bytes32"
        },
        {
          "internalType": "uint256",
          "name": "timestamp",
          "type": "uint256"
        },
        {
          "internalType": "string",
          "name": "chainName",
          "type": "string"
        }
      ],
      "stateMutability": "view",
      "type": "function"
    },
    {
      "inputs": [],
      "name": "anchoredChainName",
      "outputs": [
        {
          "internalType": "string",
          "name": "",
          "type": "string"
        }
      ],
      "stateMutability": "view",
      "type": "function"
    },
    {
      "inputs": [
        {
          "internalType": "uint256",
          "name": "",
          "type": "uint256"
        }
      ],
      "name": "blockByNumber",
      "outputs": [
        {
          "internalType": "uint256",
          "name": "blockNumber",
          "type": "uint256"
        },
        {
          "internalType": "bytes32",
          "name": "blockHash",
          "type": "bytes32"
        },
        {
          "internalType": "bytes32",
          "name": "stateRoot",
          "type": "bytes32"
        },
        {
          "internalType": "uint256",
          "name": "timestamp",
          "type": "uint256"
        },
        {
          "internalType": "string",
          "name": "chainName",
          "type": "string"
        }
      ],
      "stateMutability": "view",
      "type": "function"
    },
    {
      "inputs": [
        {
          "internalType": "uint256",
          "name": "_blockNumber",
          "type": "uint256"
        }
      ],
      "name": "getAnchoredBlock",
      "outputs": [
        {
          "components": [
            {
              "internalType": "uint256",
              "name": "blockNumber",
              "type": "uint256"
            },
            {
              "internalType": "bytes32",
              "name": "blockHash",
              "type": "bytes32"
            },
            {
              "internalType": "bytes32",
              "name": "stateRoot",
              "type": "bytes32"
            },
            {
              "internalType": "uint256",
              "name": "timestamp",
              "type": "uint256"
            },
            {
              "internalType": "string",
              "name": "chainName",
              "type": "string"
            }
          ],
          "internalType": "struct AnchorContract.BlockInfo",
          "name": "",
          "type": "tuple"
        }
      ],
      "stateMutability": "view",
      "type": "function"
    },
    {
      "inputs": [],
      "name": "getLastAnchoredBlock",
      "outputs": [
        {
          "components": [
            {
              "internalType": "uint256",
              "name": "blockNumber",
              "type": "uint256"
            },
            {
              "internalType": "bytes32",
              "name": "blockHash",
              "type": "bytes32"
            },
            {
              "internalType": "bytes32",
              "name": "stateRoot",
              "type": "bytes32"
            },
            {
              "internalType": "uint256",
              "name": "timestamp",
              "type": "uint256"
            },
            {
              "internalType": "string",
              "name": "chainName",
              "type": "string"
            }
          ],
          "internalType": "struct AnchorContract.BlockInfo",
          "name": "",
          "type": "tuple"
        }
      ],
      "stateMutability": "view",
      "type": "function"
    },
    {
      "inputs": [
        {
          "internalType": "uint256",
          "name": "_count",
          "type": "uint256"
        }
      ],
      "name": "getLastNBlocks",
      "outputs": [
        {
          "components": [
            {
              "internalType": "uint256",
              "name": "blockNumber",
              "type": "uint256"
            },
            {
              "internalType": "bytes32",
              "name": "blockHash",
              "type": "bytes32"
            },
            {
              "internalType": "bytes32",
              "name": "stateRoot",
              "type": "bytes32"
            },
            {
              "internalType": "uint256",
              "name": "timestamp",
              "type": "uint256"
            },
            {
              "internalType": "string",
              "name": "chainName",
              "type": "string"
            }
          ],
          "internalType": "struct AnchorContract.BlockInfo[]",
          "name": "",
          "type": "tuple[]"
        }
      ],
      "stateMutability": "view",
      "type": "function"
    },
    {
      "inputs": [],
      "name": "getStats",
      "outputs": [
        {
          "internalType": "uint256",
          "name": "_totalAnchors",
          "type": "uint256"
        },
        {
          "internalType": "uint256",
          "name": "_lastAnchoredBlock",
          "type": "uint256"
        },
        {
          "internalType": "string",
          "name": "_thisChain",
          "type": "string"
        },
        {
          "internalType": "string",
          "name": "_anchoredChain",
          "type": "string"
        }
      ],
      "stateMutability": "view",
      "type": "function"
    },
    {
      "inputs": [],
      "name": "lastAnchoredBlock",
      "outputs": [
        {
          "internalType": "uint256",
          "name": "",
          "type": "uint256"
        }
      ],
      "stateMutability": "view",
      "type": "function"
    },
    {
      "inputs": [],
      "name": "owner",
      "outputs": [
        {
          "internalType": "address",
          "name": "",
          "type": "address"
        }
      ],
      "stateMutability": "view",
      "type": "function"
    },
    {
      "inputs": [],
      "name": "thisChainName",
      "outputs": [
        {
          "internalType": "string",
          "name": "",
          "type": "string"
        }
      ],
      "stateMutability": "view",
      "type": "function"
    },
    {
      "inputs": [],
      "name": "totalAnchors",
      "outputs": [
        {
          "internalType": "uint256",
          "name": "",
          "type": "uint256"
        }
      ],
      "stateMutability": "view",
      "type": "function"
    },
    {
      "inputs": [
        {
          "internalType": "address",
          "name": "newOwner",
          "type": "address"
        }
      ],
      "name": "transferOwnership",
      "outputs": [],
      "stateMutability": "nonpayable",
      "type": "function"
    }
  ],
  "bytecode": "0x608060405234801561001057600080fd5b50604051612a0b380380612a0b83398181016040528101906100329190610279565b61004c670574951e2804cf2760c01b61010160201b60201c565b61006667056881d79c51af2c60c01b61010160201b60201c565b336000806101000a81548173ffffffffffffffffffffffffffffffffffffffff021916908373ffffffffffffffffffffffffffffffffffffffff1602179055506100c0675df0022a961ec90160c01b61010160201b60201c565b81600190816100cf9190610512565b506100ea67f399ee08c8f93b8260c01b61010160201b60201c565b80600290816100f99190610512565b5050506105e4565b50565b6000604051905090565b600080fd5b600080fd5b600080fd5b600080fd5b6000601f19601f8301169050919050565b7f4e487b7100000000000000000000000000000000000000000000000000000000600052604160045260246000fd5b61016b82610122565b810181811067ffffffffffffffff8211171561018a57610189610133565b5b80604052505050565b600061019d610104565b90506101a98282610162565b919050565b600067ffffffffffffffff8211156101c9576101c8610133565b5b6101d282610122565b9050602081019050919050565b60005b838110156101fd5780820151818401526020810190506101e2565b60008484015250505050565b600061021c610217846101ae565b610193565b9050828152602081018484840111156102385761023761011d565b5b6102438482856101df565b509392505050565b600082601f8301126102605761025f610118565b5b8151610270848260208601610209565b91505092915050565b600080604083850312156102905761028f61010e565b5b600083015167ffffffffffffffff8111156102ae576102ad610113565b5b6102ba8582860161024b565b925050602083015167ffffffffffffffff8111156102db576102da610113565b5b6102e78582860161024b565b9150509250929050565b600081519050919050565b7f4e487b7100000000000000000000000000000000000000000000000000000000600052602260045260246000fd5b6000600282049050600182168061034357607f821691505b602082108103610356576103556102fc565b5b50919050565b60008190508160005260206000209050919050565b60006020601f8301049050919050565b600082821b905092915050565b6000600883026103be7fffffffffffffffffffffffffffffffffffffffffffffffffffffffffffffffff82610381565b6103c88683610381565b95508019841693508086168417925050509392505050565b6000819050919050565b6000819050919050565b600061040f61040a610405846103e0565b6103ea565b6103e0565b9050919050565b6000819050919050565b610429836103f4565b61043d61043582610416565b84845461038e565b825550505050565b600090565b610452610445565b61045d818484610420565b505050565b5b818110156104815761047660008261044a565b600181019050610463565b5050565b601f8211156104c6576104978161035c565b6104a084610371565b810160208510156104af578190505b6104c36104bb85610371565b830182610462565b50505b505050565b600082821c905092915050565b60006104e9600019846008026104cb565b1980831691505092915050565b600061050283836104d8565b9150826002028217905092915050565b61051b826102f1565b67ffffffffffffffff81111561053457610533610133565b5b61053e825461032b565b610549828285610485565b600060209050601f83116001811461057c576000841561056a578287015190505b61057485826104f6565b8655506105dc565b601f19841661058a8661035c565b60005b828110156105b25784890151825560018201915060208501945060208101905061058d565b868310156105cf57848901516105cb601f8916826104d8565b8355505b6001600288020188555050505b505050505050565b612418806105f36000396000f3fe608060405234801561001057600080fd5b50600436106100af5760003560e01c80633858f5e7146100b457806338e36544146100d05780633fb00a37146100ee578063549a06c01461011e57806365a1930d1461014e5780638da5cb5b1461016c5780639ffb46351461018a578063ab1e7425146101a8578063b7e45161146101c6578063c59d4847146101fa578063d54604521461021b578063f2ce940c14610239578063f2fde38b1461026d575b600080fd5b6100ce60048036038101906100c9919061170a565b610289565b005b6100d86106ec565b6040516100e5919061176c565b60405180910390f35b61010860048036038101906101039190611787565b6106f2565b60405161011591906118d8565b60405180910390f35b61013860048036038101906101339190611787565b6108be565b6040516101459190611a32565b60405180910390f35b610156610d0c565b60405161016391906118d8565b60405180910390f35b610174610ee2565b6040516101819190611a95565b60405180910390f35b610192610f06565b60405161019f919061176c565b60405180910390f35b6101b0610f0c565b6040516101bd9190611afa565b60405180910390f35b6101e060048036038101906101db9190611787565b610f9a565b6040516101f1959493929190611b2b565b60405180910390f35b610202611058565b6040516102129493929190611b85565b60405180910390f35b6102236111ca565b6040516102309190611afa565b60405180910390f35b610253600480360381019061024e9190611787565b611258565b604051610264959493929190611b2b565b60405180910390f35b61028760048036038101906102829190611c04565b611326565b005b61029d67b008abd3c35511df60c01b61164f565b6102b167fdffb5926d3db14a60c01b61164f565b6102c5676a39f6ccb82bb10460c01b61164f565b6102d967704374f59c64d8c560c01b61164f565b6102ed67531e2f51daa8d17d60c01b61164f565b60008054906101000a900473ffffffffffffffffffffffffffffffffffffffff1673ffffffffffffffffffffffffffffffffffffffff163373ffffffffffffffffffffffffffffffffffffffff161461037b576040517f08c379a000000000000000000000000000000000000000000000000000000000815260040161037290611ca3565b60405180910390fd5b61038f67cc62fb2ea113cf3e60c01b61164f565b6103a367c0e3a1588ae00db760c01b61164f565b6103b767162cff5e55d408b060c01b61164f565b6103cb67efd95b087b78db0d60c01b61164f565b6103df67e76723d6b1bc8db860c01b61164f565b6103f3672a5adedc3b40140260c01b61164f565b61040767f40aa9656020d04a60c01b61164f565b600554831161044b576040517f08c379a000000000000000000000000000000000000000000000000000000000815260040161044290611d35565b60405180910390fd5b61045f67d5c1967e4b434c2c60c01b61164f565b61047367fc1b65cb33a0c02960c01b61164f565b610487671d60eca18633220660c01b61164f565b60006040518060a00160405280858152602001848152602001838152602001428152602001600280546104b990611d84565b80601f01602080910402602001604051908101604052809291908181526020018280546104e590611d84565b80156105325780601f1061050757610100808354040283529160200191610532565b820191906000526020600020905b81548152906001019060200180831161051557829003601f168201915b5050505050815250905061055067d5ca51238263250d60c01b61164f565b61056467fab886bc7e3c6b0060c01b61164f565b60038190806001815401808255809150506001900390600052602060002090600502016000909190919091506000820151816000015560208201518160010155604082015181600201556060820151816003015560808201518160040190816105cd9190611f90565b5050506105e4673f625b0777a49d9560c01b61164f565b80600460008681526020019081526020016000206000820151816000015560208201518160010155604082015181600201556060820151816003015560808201518160040190816106359190611f90565b5090505061064d67957653cd800c303a60c01b61164f565b8360058190555061066867cf52c7956b36478360c01b61164f565b6006600081548092919061067b90612091565b919050555061069467b75c1fd1bba70d2360c01b61164f565b6106a867be2da4d59ac25f2c60c01b61164f565b82847f56fc7a4eb9a3cdefa29adb0ea560e18cf1b5a77b5a9fc655f3c806ff62430573846002426040516106de9392919061215d565b60405180910390a350505050565b60055481565b6106fa611664565b61070e67f0178dc0940f5e6560c01b61164f565b61072267718a15175dff802460c01b61164f565b610736676c67840026c5cabb60c01b61164f565b61074a6782a72f3baf2a2d5260c01b61164f565b60006004600084815260200190815260200160002060000154036107a3576040517f08c379a000000000000000000000000000000000000000000000000000000000815260040161079a906121e7565b60405180910390fd5b6107b767e4d8ed17853fe71160c01b61164f565b6107cb67bfa2f4318ad1c4c960c01b61164f565b6107df67315489880a8875d660c01b61164f565b600460008381526020019081526020016000206040518060a00160405290816000820154815260200160018201548152602001600282015481526020016003820154815260200160048201805461083590611d84565b80601f016020809104026020016040519081016040528092919081815260200182805461086190611d84565b80156108ae5780601f10610883576101008083540402835291602001916108ae565b820191906000526020600020905b81548152906001019060200180831161089157829003601f168201915b5050505050815250509050919050565b60606108d467378dae7ad178cd4a60c01b61164f565b6108e8679adaa79dd97086a860c01b61164f565b6108fc672bd964e5407530cc60c01b61164f565b6109106733165b39dba1674760c01b61164f565b60008211610953576040517f08c379a000000000000000000000000000000000000000000000000000000000815260040161094a90612253565b60405180910390fd5b61096767c31758b346345ed560c01b61164f565b61097b671c77b3e398c153c460c01b61164f565b61098f674a9af00f82e11b5160c01b61164f565b6109a367f0117875425ddf9860c01b61164f565b6000600654116109e8576040517f08c379a00000000000000000000000000000000000000000000000000000000081526004016109df906122bf565b60405180910390fd5b6109fc67eb7dc4ef3746675f60c01b61164f565b610a1067091b40f9f05bc14460c01b61164f565b610a24677bcd91da49ef1e9f60c01b61164f565b6000826006541180610a465750610a45678bcaf6ccdbefb2cd60c01b611652565b5b8015610a625750610a61675d8666d15011ffbe60c01b611659565b5b610a6d576000610a7c565b82600654610a7b91906122df565b5b9050610a92671c6e8b3f32d2de8660c01b61164f565b610aa6673f85027ce23dcbb260c01b61164f565b6000836006541180610ac85750610ac767b887a6d7e314d64d60c01b611652565b5b8015610ae45750610ae367bfa6d1cbce19d6b060c01b611659565b5b610af057600654610af2565b835b9050610b086791f15fe041271f7460c01b61164f565b610b1c6791c04509d6ac128760c01b61164f565b60008167ffffffffffffffff811115610b3857610b37611db5565b5b604051908082528060200260200182016040528015610b7157816020015b610b5e611664565b815260200190600190039081610b565790505b509050610b88676d7fd543062dd32f60c01b61164f565b610b9c67f8f580e04982411860c01b61164f565b60005b82811015610cd857610bbb6711ea1f519615284360c01b61164f565b60038185610bc99190612313565b81548110610bda57610bd9612347565b5b90600052602060002090600502016040518060a001604052908160008201548152602001600182015481526020016002820154815260200160038201548152602001600482018054610c2b90611d84565b80601f0160208091040260200160405190810160405280929190818152602001828054610c5790611d84565b8015610ca45780601f10610c7957610100808354040283529160200191610ca4565b820191906000526020600020905b815481529060010190602001808311610c8757829003601f168201915b505050505081525050828281518110610cc057610cbf612347565b5b60200260200101819052508080600101915050610b9f565b50610ced6701e9807cbf876f2360c01b61164f565b610d01671147b1283093f6f060c01b61164f565b809350505050919050565b610d14611664565b610d2867ab47cb84a855f6c560c01b61164f565b610d3c67d56a35936850e49f60c01b61164f565b610d5067a4fc1cae6f69252360c01b61164f565b610d646725f313266f7394bd60c01b61164f565b600060065411610da9576040517f08c379a0000000000000000000000000000000000000000000000000000000008152600401610da0906122bf565b60405180910390fd5b610dbd670b442ca1a51ebac960c01b61164f565b610dd16723815b20dbf0d00860c01b61164f565b610de567fb22fe809c625d1460c01b61164f565b60036001600380549050610df991906122df565b81548110610e0a57610e09612347565b5b90600052602060002090600502016040518060a001604052908160008201548152602001600182015481526020016002820154815260200160038201548152602001600482018054610e5b90611d84565b80601f0160208091040260200160405190810160405280929190818152602001828054610e8790611d84565b8015610ed45780601f10610ea957610100808354040283529160200191610ed4565b820191906000526020600020905b815481529060010190602001808311610eb757829003601f168201915b505050505081525050905090565b60008054906101000a900473ffffffffffffffffffffffffffffffffffffffff1681565b60065481565b60028054610f1990611d84565b80601f0160208091040260200160405190810160405280929190818152602001828054610f4590611d84565b8015610f925780601f10610f6757610100808354040283529160200191610f92565b820191906000526020600020905b815481529060010190602001808311610f7557829003601f168201915b505050505081565b6004602052806000526040600020600091509050806000015490806001015490806002015490806003015490806004018054610fd590611d84565b80601f016020809104026020016040519081016040528092919081815260200182805461100190611d84565b801561104e5780601f106110235761010080835404028352916020019161104e565b820191906000526020600020905b81548152906001019060200180831161103157829003601f168201915b5050505050905085565b60008060608061107267d510da5fd6c16e4660c01b61164f565b6110866718ea1bf81733a96860c01b61164f565b61109a67ba4d94047a49532960c01b61164f565b600654600554600160028180546110b090611d84565b80601f01602080910402602001604051908101604052809291908181526020018280546110dc90611d84565b80156111295780601f106110fe57610100808354040283529160200191611129565b820191906000526020600020905b81548152906001019060200180831161110c57829003601f168201915b5050505050915080805461113c90611d84565b80601f016020809104026020016040519081016040528092919081815260200182805461116890611d84565b80156111b55780601f1061118a576101008083540402835291602001916111b5565b820191906000526020600020905b81548152906001019060200180831161119857829003601f168201915b50505050509050935093509350935090919293565b600180546111d790611d84565b80601f016020809104026020016040519081016040528092919081815260200182805461120390611d84565b80156112505780601f1061122557610100808354040283529160200191611250565b820191906000526020600020905b81548152906001019060200180831161123357829003601f168201915b505050505081565b6003818154811061126857600080fd5b90600052602060002090600502016000915090508060000154908060010154908060020154908060030154908060040180546112a390611d84565b80601f01602080910402602001604051908101604052809291908181526020018280546112cf90611d84565b801561131c5780601f106112f15761010080835404028352916020019161131c565b820191906000526020600020905b8154815290600101906020018083116112ff57829003601f168201915b5050505050905085565b61133a679f2deb490f2e426c60c01b61164f565b61134e67fdffb5926d3db14a60c01b61164f565b611362676a39f6ccb82bb10460c01b61164f565b61137667704374f59c64d8c560c01b61164f565b61138a67531e2f51daa8d17d60c01b61164f565b60008054906101000a900473ffffffffffffffffffffffffffffffffffffffff1673ffffffffffffffffffffffffffffffffffffffff163373ffffffffffffffffffffffffffffffffffffffff1614611418576040517f08c379a000000000000000000000000000000000000000000000000000000000815260040161140f90611ca3565b60405180910390fd5b61142c67cc62fb2ea113cf3e60c01b61164f565b61144067c0e3a1588ae00db760c01b61164f565b61145467801ee30c980c764460c01b61164f565b61146867dd46a07e5129485860c01b61164f565b61147c6756569801404fd95a60c01b61164f565b61149067d0954ccc9c991ade60c01b61164f565b6114a4675bc167e5eaa5888060c01b61164f565b600073ffffffffffffffffffffffffffffffffffffffff168173ffffffffffffffffffffffffffffffffffffffff1603611513576040517f08c379a000000000000000000000000000000000000000000000000000000000815260040161150a906123c2565b60405180910390fd5b61152767f24c5146e489463e60c01b61164f565b61153b67e025869e9578b7a160c01b61164f565b61154f672b2652da67fd02e360c01b61164f565b60008060009054906101000a900473ffffffffffffffffffffffffffffffffffffffff16905061158967cb8bfa684b6a554b60c01b61164f565b816000806101000a81548173ffffffffffffffffffffffffffffffffffffffff021916908373ffffffffffffffffffffffffffffffffffffffff1602179055506115dd675caffa8f6ca0858060c01b61164f565b6115f167f885cce220bdc92c60c01b61164f565b8173ffffffffffffffffffffffffffffffffffffffff168173ffffffffffffffffffffffffffffffffffffffff167f8be0079c531659141344cd1fd0a4f28419497f9722a3daafe3b4186f6b6457e060405160405180910390a35050565b50565b6000919050565b600060019050919050565b6040518060a0016040528060008152602001600080191681526020016000801916815260200160008152602001606081525090565b600080fd5b6000819050919050565b6116b18161169e565b81146116bc57600080fd5b50565b6000813590506116ce816116a8565b92915050565b6000819050919050565b6116e7816116d4565b81146116f257600080fd5b50565b600081359050611704816116de565b92915050565b60008060006060848603121561172357611722611699565b5b6000611731868287016116bf565b9350506020611742868287016116f5565b9250506040611753868287016116f5565b9150509250925092565b6117668161169e565b82525050565b6000602082019050611781600083018461175d565b92915050565b60006020828403121561179d5761179c611699565b5b60006117ab848285016116bf565b91505092915050565b6117bd8161169e565b82525050565b6117cc816116d4565b82525050565b600081519050919050565b600082825260208201905092915050565b60005b8381101561180c5780820151818401526020810190506117f1565b60008484015250505050565b6000601f19601f8301169050919050565b6000611834826117d2565b61183e81856117dd565b935061184e8185602086016117ee565b61185781611818565b840191505092915050565b600060a08301600083015161187a60008601826117b4565b50602083015161188d60208601826117c3565b5060408301516118a060408601826117c3565b5060608301516118b360608601826117b4565b50608083015184820360808601526118cb8282611829565b9150508091505092915050565b600060208201905081810360008301526118f28184611862565b905092915050565b600081519050919050565b600082825260208201905092915050565b6000819050602082019050919050565b600060a08301600083015161193e60008601826117b4565b50602083015161195160208601826117c3565b50604083015161196460408601826117c3565b50606083015161197760608601826117b4565b506080830151848203608086015261198f8282611829565b9150508091505092915050565b60006119a88383611926565b905092915050565b6000602082019050919050565b60006119c8826118fa565b6119d28185611905565b9350836020820285016119e485611916565b8060005b85811015611a205784840389528151611a01858261199c565b9450611a0c836119b0565b925060208a019950506001810190506119e8565b50829750879550505050505092915050565b60006020820190508181036000830152611a4c81846119bd565b905092915050565b600073ffffffffffffffffffffffffffffffffffffffff82169050919050565b6000611a7f82611a54565b9050919050565b611a8f81611a74565b82525050565b6000602082019050611aaa6000830184611a86565b92915050565b600082825260208201905092915050565b6000611acc826117d2565b611ad68185611ab0565b9350611ae68185602086016117ee565b611aef81611818565b840191505092915050565b60006020820190508181036000830152611b148184611ac1565b905092915050565b611b25816116d4565b82525050565b600060a082019050611b40600083018861175d565b611b4d6020830187611b1c565b611b5a6040830186611b1c565b611b67606083018561175d565b8181036080830152611b798184611ac1565b90509695505050505050565b6000608082019050611b9a600083018761175d565b611ba7602083018661175d565b8181036040830152611bb98185611ac1565b90508181036060830152611bcd8184611ac1565b905095945050505050565b611be181611a74565b8114611bec57600080fd5b50565b600081359050611bfe81611bd8565b92915050565b600060208284031215611c1a57611c19611699565b5b6000611c2884828501611bef565b91505092915050565b7f536f6c6f20656c2070726f706965746172696f20707565646520656a6563757460008201527f617220657374612066756e63696f6e0000000000000000000000000000000000602082015250565b6000611c8d602f83611ab0565b9150611c9882611c31565b604082019050919050565b60006020820190508181036000830152611cbc81611c80565b9050919050565b7f456c20626c6f7175652079612066756520616e636c61646f206f20657320616e60008201527f746572696f720000000000000000000000000000000000000000000000000000602082015250565b6000611d1f602683611ab0565b9150611d2a82611cc3565b604082019050919050565b60006020820190508181036000830152611d4e81611d12565b9050919050565b7f4e487b7100000000000000000000000000000000000000000000000000000000600052602260045260246000fd5b60006002820490506001821680611d9c57607f821691505b602082108103611daf57611dae611d55565b5b50919050565b7f4e487b7100000000000000000000000000000000000000000000000000000000600052604160045260246000fd5b60008190508160005260206000209050919050565b60006020601f8301049050919050565b600082821b905092915050565b600060088302611e467fffffffffffffffffffffffffffffffffffffffffffffffffffffffffffffffff82611e09565b611e508683611e09565b95508019841693508086168417925050509392505050565b6000819050919050565b6000611e8d611e88611e838461169e565b611e68565b61169e565b9050919050565b6000819050919050565b611ea783611e72565b611ebb611eb382611e94565b848454611e16565b825550505050565b600090565b611ed0611ec3565b611edb818484611e9e565b505050565b5b81811015611eff57611ef4600082611ec8565b600181019050611ee1565b5050565b601f821115611f4457611f1581611de4565b611f1e84611df9565b81016020851015611f2d578190505b611f41611f3985611df9565b830182611ee0565b50505b505050565b600082821c905092915050565b6000611f6760001984600802611f49565b1980831691505092915050565b6000611f808383611f56565b9150826002028217905092915050565b611f99826117d2565b67ffffffffffffffff811115611fb257611fb1611db5565b5b611fbc8254611d84565b611fc7828285611f03565b600060209050601f831160018114611ffa5760008415611fe8578287015190505b611ff28582611f74565b86555061205a565b601f19841661200886611de4565b60005b828110156120305784890151825560018201915060208501945060208101905061200b565b8683101561204d5784890151612049601f891682611f56565b8355505b6001600288020188555050505b505050505050565b7f4e487b7100000000000000000000000000000000000000000000000000000000600052601160045260246000fd5b600061209c8261169e565b91507fffffffffffffffffffffffffffffffffffffffffffffffffffffffffffffffff82036120ce576120cd612062565b5b600182019050919050565b600081546120e681611d84565b6120f08186611ab0565b9450600182166000811461210b576001811461212157612154565b60ff198316865281151560200286019350612154565b61212a85611de4565b60005b8381101561214c5781548189015260018201915060208101905061212d565b808801955050505b50505092915050565b60006060820190506121726000830186611b1c565b818103602083015261218481856120d9565b9050612193604083018461175d565b949350505050565b7f426c6f717565206e6f20656e636f6e747261646f000000000000000000000000600082015250565b60006121d1601483611ab0565b91506121dc8261219b565b602082019050919050565b60006020820190508181036000830152612200816121c4565b9050919050565b7f436f756e74206465626520736572206d61796f72206120300000000000000000600082015250565b600061223d601883611ab0565b915061224882612207565b602082019050919050565b6000602082019050818103600083015261226c81612230565b9050919050565b7f4e6f2068617920626c6f7175657320616e636c61646f73000000000000000000600082015250565b60006122a9601783611ab0565b91506122b482612273565b602082019050919050565b600060208201905081810360008301526122d88161229c565b9050919050565b60006122ea8261169e565b91506122f58361169e565b925082820390508181111561230d5761230c612062565b5b92915050565b600061231e8261169e565b91506123298361169e565b925082820190508082111561234157612340612062565b5b92915050565b7f4e487b7100000000000000000000000000000000000000000000000000000000600052603260045260246000fd5b7f4e7565766120646972656363696f6e206e6f2070756564652073657220307830600082015250565b60006123ac602083611ab0565b91506123b782612376565b602082019050919050565b600060208201905081810360008301526123db8161239f565b905091905056fea2646970667358221220897ce55324af055528d460fae006593c6fb4dca0f96c8c0ac84ba4bf3a4f579364736f6c634300081c0033",
  "linkReferences": {},
  "deployedLinkReferences": {}
}